{
  "contractName": "Market",
  "abi": [
    {
      "inputs": [
        {
          "internalType": "contract D4Atoken",
          "name": "_rewardToken",
          "type": "address"
        }
      ],
      "stateMutability": "nonpayable",
      "type": "constructor"
    },
    {
      "anonymous": false,
      "inputs": [
        {
          "indexed": false,
          "internalType": "uint256",
          "name": "amount",
          "type": "uint256"
        },
        {
          "indexed": false,
          "internalType": "address",
          "name": "user",
          "type": "address"
        }
      ],
      "name": "Claimed",
      "type": "event"
    },
    {
      "anonymous": false,
      "inputs": [
        {
          "indexed": false,
          "internalType": "uint256",
          "name": "amount",
          "type": "uint256"
        },
        {
          "indexed": false,
          "internalType": "address",
          "name": "asset",
          "type": "address"
        },
        {
          "indexed": false,
          "internalType": "address",
          "name": "user",
          "type": "address"
        }
      ],
      "name": "Deposited",
      "type": "event"
    },
    {
      "anonymous": false,
      "inputs": [
        {
          "indexed": true,
          "internalType": "address",
          "name": "previousOwner",
          "type": "address"
        },
        {
          "indexed": true,
          "internalType": "address",
          "name": "newOwner",
          "type": "address"
        }
      ],
      "name": "OwnershipTransferred",
      "type": "event"
    },
    {
      "anonymous": false,
      "inputs": [
        {
          "indexed": false,
          "internalType": "uint256",
          "name": "amount",
          "type": "uint256"
        },
        {
          "indexed": false,
          "internalType": "address",
          "name": "user",
          "type": "address"
        }
      ],
      "name": "RewardUpdated",
      "type": "event"
    },
    {
      "anonymous": false,
      "inputs": [
        {
          "indexed": false,
          "internalType": "address",
          "name": "asset",
          "type": "address"
        }
      ],
      "name": "TokenAdded",
      "type": "event"
    },
    {
      "anonymous": false,
      "inputs": [
        {
          "indexed": false,
          "internalType": "uint256",
          "name": "amount",
          "type": "uint256"
        },
        {
          "indexed": false,
          "internalType": "address",
          "name": "asset",
          "type": "address"
        },
        {
          "indexed": false,
          "internalType": "address",
          "name": "user",
          "type": "address"
        }
      ],
      "name": "Withdrawn",
      "type": "event"
    },
    {
      "inputs": [],
      "name": "owner",
      "outputs": [
        {
          "internalType": "address",
          "name": "",
          "type": "address"
        }
      ],
      "stateMutability": "view",
      "type": "function",
      "constant": true
    },
    {
      "inputs": [],
      "name": "renounceOwnership",
      "outputs": [],
      "stateMutability": "nonpayable",
      "type": "function"
    },
    {
      "inputs": [],
      "name": "rewardToken",
      "outputs": [
        {
          "internalType": "contract D4Atoken",
          "name": "",
          "type": "address"
        }
      ],
      "stateMutability": "view",
      "type": "function",
      "constant": true
    },
    {
      "inputs": [
        {
          "internalType": "uint256",
          "name": "",
          "type": "uint256"
        }
      ],
      "name": "tokens",
      "outputs": [
        {
          "internalType": "address",
          "name": "",
          "type": "address"
        }
      ],
      "stateMutability": "view",
      "type": "function",
      "constant": true
    },
    {
      "inputs": [
        {
          "internalType": "address",
          "name": "newOwner",
          "type": "address"
        }
      ],
      "name": "transferOwnership",
      "outputs": [],
      "stateMutability": "nonpayable",
      "type": "function"
    },
    {
      "inputs": [
        {
          "internalType": "address",
          "name": "_asset",
          "type": "address"
        },
        {
          "internalType": "uint256",
          "name": "_rewardPerHourFor1TKN",
          "type": "uint256"
        },
        {
          "internalType": "string",
          "name": "_priceSymbol",
          "type": "string"
        }
      ],
      "name": "addToken",
      "outputs": [],
      "stateMutability": "nonpayable",
      "type": "function"
    },
    {
      "inputs": [
        {
          "internalType": "address",
          "name": "_asset",
          "type": "address"
        }
      ],
      "name": "priceOf",
      "outputs": [
        {
          "internalType": "int256",
          "name": "",
          "type": "int256"
        }
      ],
      "stateMutability": "view",
      "type": "function",
      "constant": true
    },
    {
      "inputs": [
        {
          "internalType": "uint256",
          "name": "_amount",
          "type": "uint256"
        },
        {
          "internalType": "address",
          "name": "_asset",
          "type": "address"
        }
      ],
      "name": "deposit",
      "outputs": [],
      "stateMutability": "nonpayable",
      "type": "function"
    },
    {
      "inputs": [
        {
          "internalType": "uint256",
          "name": "_amount",
          "type": "uint256"
        },
        {
          "internalType": "address",
          "name": "_asset",
          "type": "address"
        }
      ],
      "name": "withdraw",
      "outputs": [],
      "stateMutability": "nonpayable",
      "type": "function"
    },
    {
      "inputs": [],
      "name": "claim",
      "outputs": [],
      "stateMutability": "nonpayable",
      "type": "function"
    },
    {
      "inputs": [],
      "name": "calculateTotalRewardEarned",
      "outputs": [
        {
          "internalType": "uint256",
          "name": "",
          "type": "uint256"
        }
      ],
      "stateMutability": "view",
      "type": "function",
      "constant": true
    },
    {
      "inputs": [
        {
          "internalType": "address",
          "name": "_asset",
          "type": "address"
        }
      ],
      "name": "getBalance",
      "outputs": [
        {
          "internalType": "uint256",
          "name": "",
          "type": "uint256"
        }
      ],
      "stateMutability": "view",
      "type": "function",
      "constant": true
    },
    {
      "inputs": [
        {
          "internalType": "address",
          "name": "_asset",
          "type": "address"
        }
      ],
      "name": "getLastTransact",
      "outputs": [
        {
          "internalType": "uint256",
          "name": "",
          "type": "uint256"
        }
      ],
      "stateMutability": "view",
      "type": "function",
      "constant": true
    },
    {
      "inputs": [
        {
          "internalType": "address",
          "name": "_asset",
          "type": "address"
        }
      ],
      "name": "getReserve",
      "outputs": [
        {
          "components": [
            {
              "internalType": "contract ERC20",
              "name": "token",
              "type": "address"
            },
            {
              "internalType": "string",
              "name": "priceSymbol",
              "type": "string"
            },
            {
              "internalType": "uint256",
              "name": "rewardPerHourFor1TKN",
              "type": "uint256"
            },
            {
              "internalType": "bool",
              "name": "isSupported",
              "type": "bool"
            }
          ],
          "internalType": "struct Market.Reserve",
          "name": "",
          "type": "tuple"
        }
      ],
      "stateMutability": "view",
      "type": "function",
      "constant": true
    },
    {
      "inputs": [],
      "name": "getRewardBalance",
      "outputs": [
        {
          "internalType": "uint256",
          "name": "",
          "type": "uint256"
        }
      ],
      "stateMutability": "view",
      "type": "function",
      "constant": true
    }
  ],
  "bytecode": "0x60806040523480156200001157600080fd5b506040516200494138038062004941833981810160405281019062000037919062000263565b620000576200004b6200010b60201b60201c565b6200011360201b60201c565b80600560006101000a81548173ffffffffffffffffffffffffffffffffffffffff021916908373ffffffffffffffffffffffffffffffffffffffff160217905550604051620000a690620001d7565b604051809103906000f080158015620000c3573d6000803e3d6000fd5b50600660006101000a81548173ffffffffffffffffffffffffffffffffffffffff021916908373ffffffffffffffffffffffffffffffffffffffff1602179055505062000295565b600033905090565b60008060009054906101000a900473ffffffffffffffffffffffffffffffffffffffff169050816000806101000a81548173ffffffffffffffffffffffffffffffffffffffff021916908373ffffffffffffffffffffffffffffffffffffffff1602179055508173ffffffffffffffffffffffffffffffffffffffff168173ffffffffffffffffffffffffffffffffffffffff167f8be0079c531659141344cd1fd0a4f28419497f9722a3daafe3b4186f6b6457e060405160405180910390a35050565b611e658062002adc83390190565b600080fd5b600073ffffffffffffffffffffffffffffffffffffffff82169050919050565b60006200021782620001ea565b9050919050565b60006200022b826200020a565b9050919050565b6200023d816200021e565b81146200024957600080fd5b50565b6000815190506200025d8162000232565b92915050565b6000602082840312156200027c576200027b620001e5565b5b60006200028c848285016200024c565b91505092915050565b61283780620002a56000396000f3fe608060405234801561001057600080fd5b50600436106100f45760003560e01c80638da5cb5b11610097578063f2fde38b11610066578063f2fde38b1461025d578063f34f04a614610279578063f7c618c114610297578063f8b2cb4f146102b5576100f4565b80638da5cb5b146101af57806393e4f7b2146101cd578063b95ed06f146101fd578063c9a396e91461022d576100f4565b80634f64b2be116100d35780634f64b2be1461013b5780635e42b4551461016b5780636e553f6514610189578063715018a6146101a5576100f4565b8062f714ce146100f95780631d0b347a146101155780634e71d92d14610131575b600080fd5b610113600480360381019061010e9190611c26565b6102e5565b005b61012f600480360381019061012a9190611dac565b6106a0565b005b6101396108e7565b005b61015560048036038101906101509190611e1b565b610bc1565b6040516101629190611e57565b60405180910390f35b610173610c00565b6040516101809190611e81565b60405180910390f35b6101a3600480360381019061019e9190611c26565b610c47565b005b6101ad610f1d565b005b6101b7610f31565b6040516101c49190611e57565b60405180910390f35b6101e760048036038101906101e29190611e9c565b610f5a565b6040516101f49190611e81565b60405180910390f35b61021760048036038101906102129190611e9c565b611074565b6040516102249190611ee2565b60405180910390f35b61024760048036038101906102429190611e9c565b6111eb565b6040516102549190612071565b60405180910390f35b61027760048036038101906102729190611e9c565b6113e2565b005b610281611465565b60405161028e9190611e81565b60405180910390f35b61029f61153f565b6040516102ac91906120b4565b60405180910390f35b6102cf60048036038101906102ca9190611e9c565b611565565b6040516102dc9190611e81565b60405180910390f35b80600160008273ffffffffffffffffffffffffffffffffffffffff1673ffffffffffffffffffffffffffffffffffffffff16815260200190815260200160002060030160009054906101000a900460ff16610375576040517f08c379a000000000000000000000000000000000000000000000000000000000815260040161036c9061212c565b60405180910390fd5b8261037f83611565565b10156103c0576040517f08c379a00000000000000000000000000000000000000000000000000000000081526004016103b790612198565b60405180910390fd5b600160008373ffffffffffffffffffffffffffffffffffffffff1673ffffffffffffffffffffffffffffffffffffffff16815260200190815260200160002060000160009054906101000a900473ffffffffffffffffffffffffffffffffffffffff1673ffffffffffffffffffffffffffffffffffffffff1663a9059cbb33856040518363ffffffff1660e01b815260040161045d9291906121b8565b6020604051808303816000875af115801561047c573d6000803e3d6000fd5b505050506040513d601f19601f820116820180604052508101906104a0919061220d565b506104aa8261167f565b82600260003373ffffffffffffffffffffffffffffffffffffffff1673ffffffffffffffffffffffffffffffffffffffff16815260200190815260200160002060008473ffffffffffffffffffffffffffffffffffffffff1673ffffffffffffffffffffffffffffffffffffffff16815260200190815260200160002060000160008282546105399190612269565b92505081905550600061054b83611565565b11156105da5742600260003373ffffffffffffffffffffffffffffffffffffffff1673ffffffffffffffffffffffffffffffffffffffff16815260200190815260200160002060008473ffffffffffffffffffffffffffffffffffffffff1673ffffffffffffffffffffffffffffffffffffffff16815260200190815260200160002060010181905550610660565b6000600260003373ffffffffffffffffffffffffffffffffffffffff1673ffffffffffffffffffffffffffffffffffffffff16815260200190815260200160002060008473ffffffffffffffffffffffffffffffffffffffff1673ffffffffffffffffffffffffffffffffffffffff168152602001908152602001600020600101819055505b7fb524bace85e4ce0f8da306e32f39263c5724780ca00b7551c051c8e3dc36adaf8383336040516106939392919061229d565b60405180910390a1505050565b6106a86117e9565b60001515600160008573ffffffffffffffffffffffffffffffffffffffff1673ffffffffffffffffffffffffffffffffffffffff16815260200190815260200160002060030160009054906101000a900460ff1615151461073e576040517f08c379a000000000000000000000000000000000000000000000000000000000815260040161073590612320565b60405180910390fd5b60405180608001604052808473ffffffffffffffffffffffffffffffffffffffff16815260200182815260200183815260200160011515815250600160008573ffffffffffffffffffffffffffffffffffffffff1673ffffffffffffffffffffffffffffffffffffffff16815260200190815260200160002060008201518160000160006101000a81548173ffffffffffffffffffffffffffffffffffffffff021916908373ffffffffffffffffffffffffffffffffffffffff160217905550602082015181600101908051906020019061081a929190611a9b565b506040820151816002015560608201518160030160006101000a81548160ff0219169083151502179055509050506004839080600181540180825580915050600190039060005260206000200160009091909190916101000a81548173ffffffffffffffffffffffffffffffffffffffff021916908373ffffffffffffffffffffffffffffffffffffffff1602179055507f784c8f4dbf0ffedd6e72c76501c545a70f8b203b30a26ce542bf92ba87c248a4836040516108da9190611e57565b60405180910390a1505050565b60008060005b6004805490508110156109eb576004818154811061090e5761090d612340565b5b9060005260206000200160009054906101000a900473ffffffffffffffffffffffffffffffffffffffff169250600061094684610f5a565b11156109da576109558361167f565b42600260003373ffffffffffffffffffffffffffffffffffffffff1673ffffffffffffffffffffffffffffffffffffffff16815260200190815260200160002060008573ffffffffffffffffffffffffffffffffffffffff1673ffffffffffffffffffffffffffffffffffffffff168152602001908152602001600020600101819055505b806109e49061236f565b90506108ed565b506000600360003373ffffffffffffffffffffffffffffffffffffffff1673ffffffffffffffffffffffffffffffffffffffff1681526020019081526020016000205411610a6e576040517f08c379a0000000000000000000000000000000000000000000000000000000008152600401610a6590612403565b60405180910390fd5b600360003373ffffffffffffffffffffffffffffffffffffffff1673ffffffffffffffffffffffffffffffffffffffff1681526020019081526020016000205490506000600360003373ffffffffffffffffffffffffffffffffffffffff1673ffffffffffffffffffffffffffffffffffffffff16815260200190815260200160002081905550600560009054906101000a900473ffffffffffffffffffffffffffffffffffffffff1673ffffffffffffffffffffffffffffffffffffffff166340c10f1933836040518363ffffffff1660e01b8152600401610b529291906121b8565b600060405180830381600087803b158015610b6c57600080fd5b505af1158015610b80573d6000803e3d6000fd5b505050507f6aa3eac93d079e5e100b1029be716caa33586c96aa4baac390669fb5c2a212128133604051610bb5929190612423565b60405180910390a15050565b60048181548110610bd157600080fd5b906000526020600020016000915054906101000a900473ffffffffffffffffffffffffffffffffffffffff1681565b6000600360003373ffffffffffffffffffffffffffffffffffffffff1673ffffffffffffffffffffffffffffffffffffffff16815260200190815260200160002054905090565b80600160008273ffffffffffffffffffffffffffffffffffffffff1673ffffffffffffffffffffffffffffffffffffffff16815260200190815260200160002060030160009054906101000a900460ff16610cd7576040517f08c379a0000000000000000000000000000000000000000000000000000000008152600401610cce9061212c565b60405180910390fd5b600160008373ffffffffffffffffffffffffffffffffffffffff1673ffffffffffffffffffffffffffffffffffffffff16815260200190815260200160002060000160009054906101000a900473ffffffffffffffffffffffffffffffffffffffff1673ffffffffffffffffffffffffffffffffffffffff166323b872dd3330866040518463ffffffff1660e01b8152600401610d769392919061244c565b6020604051808303816000875af1158015610d95573d6000803e3d6000fd5b505050506040513d601f19601f82011682018060405250810190610db9919061220d565b5042600260003373ffffffffffffffffffffffffffffffffffffffff1673ffffffffffffffffffffffffffffffffffffffff16815260200190815260200160002060008473ffffffffffffffffffffffffffffffffffffffff1673ffffffffffffffffffffffffffffffffffffffff16815260200190815260200160002060010181905550610e478261167f565b82600260003373ffffffffffffffffffffffffffffffffffffffff1673ffffffffffffffffffffffffffffffffffffffff16815260200190815260200160002060008473ffffffffffffffffffffffffffffffffffffffff1673ffffffffffffffffffffffffffffffffffffffff1681526020019081526020016000206000016000828254610ed69190612483565b925050819055507f7896c404bfb9173f4c61824c5e10e743eb885c3fe1c1727ed55ac3a51a350874838333604051610f109392919061229d565b60405180910390a1505050565b610f256117e9565b610f2f6000611867565b565b60008060009054906101000a900473ffffffffffffffffffffffffffffffffffffffff16905090565b600081600160008273ffffffffffffffffffffffffffffffffffffffff1673ffffffffffffffffffffffffffffffffffffffff16815260200190815260200160002060030160009054906101000a900460ff16610fec576040517f08c379a0000000000000000000000000000000000000000000000000000000008152600401610fe39061212c565b60405180910390fd5b600260003373ffffffffffffffffffffffffffffffffffffffff1673ffffffffffffffffffffffffffffffffffffffff16815260200190815260200160002060008473ffffffffffffffffffffffffffffffffffffffff1673ffffffffffffffffffffffffffffffffffffffff16815260200190815260200160002060010154915050919050565b600081600160008273ffffffffffffffffffffffffffffffffffffffff1673ffffffffffffffffffffffffffffffffffffffff16815260200190815260200160002060030160009054906101000a900460ff16611106576040517f08c379a00000000000000000000000000000000000000000000000000000000081526004016110fd9061212c565b60405180910390fd5b600660009054906101000a900473ffffffffffffffffffffffffffffffffffffffff1673ffffffffffffffffffffffffffffffffffffffff1663f66a1b71600160008673ffffffffffffffffffffffffffffffffffffffff1673ffffffffffffffffffffffffffffffffffffffff1681526020019081526020016000206001016040518263ffffffff1660e01b81526004016111a291906125ce565b602060405180830381865afa1580156111bf573d6000803e3d6000fd5b505050506040513d601f19601f820116820180604052508101906111e3919061261c565b915050919050565b6111f3611b21565b81600160008273ffffffffffffffffffffffffffffffffffffffff1673ffffffffffffffffffffffffffffffffffffffff16815260200190815260200160002060030160009054906101000a900460ff16611283576040517f08c379a000000000000000000000000000000000000000000000000000000000815260040161127a9061212c565b60405180910390fd5b600160008473ffffffffffffffffffffffffffffffffffffffff1673ffffffffffffffffffffffffffffffffffffffff1681526020019081526020016000206040518060800160405290816000820160009054906101000a900473ffffffffffffffffffffffffffffffffffffffff1673ffffffffffffffffffffffffffffffffffffffff1673ffffffffffffffffffffffffffffffffffffffff16815260200160018201805461133390612508565b80601f016020809104026020016040519081016040528092919081815260200182805461135f90612508565b80156113ac5780601f10611381576101008083540402835291602001916113ac565b820191906000526020600020905b81548152906001019060200180831161138f57829003601f168201915b50505050508152602001600282015481526020016003820160009054906101000a900460ff161515151581525050915050919050565b6113ea6117e9565b600073ffffffffffffffffffffffffffffffffffffffff168173ffffffffffffffffffffffffffffffffffffffff1603611459576040517f08c379a0000000000000000000000000000000000000000000000000000000008152600401611450906126bb565b60405180910390fd5b61146281611867565b50565b6000806000600360003373ffffffffffffffffffffffffffffffffffffffff1673ffffffffffffffffffffffffffffffffffffffff16815260200190815260200160002054905060005b60048054905081101561153657600481815481106114d0576114cf612340565b5b9060005260206000200160009054906101000a900473ffffffffffffffffffffffffffffffffffffffff169250600061150884610f5a565b1115611525576115178361192b565b826115229190612483565b91505b8061152f9061236f565b90506114af565b50809250505090565b600560009054906101000a900473ffffffffffffffffffffffffffffffffffffffff1681565b600081600160008273ffffffffffffffffffffffffffffffffffffffff1673ffffffffffffffffffffffffffffffffffffffff16815260200190815260200160002060030160009054906101000a900460ff166115f7576040517f08c379a00000000000000000000000000000000000000000000000000000000081526004016115ee9061212c565b60405180910390fd5b600260003373ffffffffffffffffffffffffffffffffffffffff1673ffffffffffffffffffffffffffffffffffffffff16815260200190815260200160002060008473ffffffffffffffffffffffffffffffffffffffff1673ffffffffffffffffffffffffffffffffffffffff16815260200190815260200160002060000154915050919050565b80600160008273ffffffffffffffffffffffffffffffffffffffff1673ffffffffffffffffffffffffffffffffffffffff16815260200190815260200160002060030160009054906101000a900460ff1661170f576040517f08c379a00000000000000000000000000000000000000000000000000000000081526004016117069061212c565b60405180910390fd5b6117188261192b565b600360003373ffffffffffffffffffffffffffffffffffffffff1673ffffffffffffffffffffffffffffffffffffffff16815260200190815260200160002060008282546117669190612483565b925050819055507fa7db2208fbbce7742b3103d7205e99d91f1c9a8243df48faf7651d7bf88e7b82600360003373ffffffffffffffffffffffffffffffffffffffff1673ffffffffffffffffffffffffffffffffffffffff16815260200190815260200160002054336040516117dd929190612423565b60405180910390a15050565b6117f1611a93565b73ffffffffffffffffffffffffffffffffffffffff1661180f610f31565b73ffffffffffffffffffffffffffffffffffffffff1614611865576040517f08c379a000000000000000000000000000000000000000000000000000000000815260040161185c90612727565b60405180910390fd5b565b60008060009054906101000a900473ffffffffffffffffffffffffffffffffffffffff169050816000806101000a81548173ffffffffffffffffffffffffffffffffffffffff021916908373ffffffffffffffffffffffffffffffffffffffff1602179055508173ffffffffffffffffffffffffffffffffffffffff168173ffffffffffffffffffffffffffffffffffffffff167f8be0079c531659141344cd1fd0a4f28419497f9722a3daafe3b4186f6b6457e060405160405180910390a35050565b600081600160008273ffffffffffffffffffffffffffffffffffffffff1673ffffffffffffffffffffffffffffffffffffffff16815260200190815260200160002060030160009054906101000a900460ff166119bd576040517f08c379a00000000000000000000000000000000000000000000000000000000081526004016119b49061212c565b60405180910390fd5b60006119c884611565565b905060006119d585610f5a565b90506000600160008773ffffffffffffffffffffffffffffffffffffffff1673ffffffffffffffffffffffffffffffffffffffff168152602001908152602001600020600201549050600082118015611a2e5750600083115b15611a85576000670de0b6b3a76400008285611a4a9190612747565b611a5491906127d0565b9050610e10818442611a669190612269565b611a709190612747565b611a7a91906127d0565b955050505050611a8d565b600094505050505b50919050565b600033905090565b828054611aa790612508565b90600052602060002090601f016020900481019282611ac95760008555611b10565b82601f10611ae257805160ff1916838001178555611b10565b82800160010185558215611b10579182015b82811115611b0f578251825591602001919060010190611af4565b5b509050611b1d9190611b61565b5090565b6040518060800160405280600073ffffffffffffffffffffffffffffffffffffffff16815260200160608152602001600081526020016000151581525090565b5b80821115611b7a576000816000905550600101611b62565b5090565b6000604051905090565b600080fd5b600080fd5b6000819050919050565b611ba581611b92565b8114611bb057600080fd5b50565b600081359050611bc281611b9c565b92915050565b600073ffffffffffffffffffffffffffffffffffffffff82169050919050565b6000611bf382611bc8565b9050919050565b611c0381611be8565b8114611c0e57600080fd5b50565b600081359050611c2081611bfa565b92915050565b60008060408385031215611c3d57611c3c611b88565b5b6000611c4b85828601611bb3565b9250506020611c5c85828601611c11565b9150509250929050565b600080fd5b600080fd5b6000601f19601f8301169050919050565b7f4e487b7100000000000000000000000000000000000000000000000000000000600052604160045260246000fd5b611cb982611c70565b810181811067ffffffffffffffff82111715611cd857611cd7611c81565b5b80604052505050565b6000611ceb611b7e565b9050611cf78282611cb0565b919050565b600067ffffffffffffffff821115611d1757611d16611c81565b5b611d2082611c70565b9050602081019050919050565b82818337600083830152505050565b6000611d4f611d4a84611cfc565b611ce1565b905082815260208101848484011115611d6b57611d6a611c6b565b5b611d76848285611d2d565b509392505050565b600082601f830112611d9357611d92611c66565b5b8135611da3848260208601611d3c565b91505092915050565b600080600060608486031215611dc557611dc4611b88565b5b6000611dd386828701611c11565b9350506020611de486828701611bb3565b925050604084013567ffffffffffffffff811115611e0557611e04611b8d565b5b611e1186828701611d7e565b9150509250925092565b600060208284031215611e3157611e30611b88565b5b6000611e3f84828501611bb3565b91505092915050565b611e5181611be8565b82525050565b6000602082019050611e6c6000830184611e48565b92915050565b611e7b81611b92565b82525050565b6000602082019050611e966000830184611e72565b92915050565b600060208284031215611eb257611eb1611b88565b5b6000611ec084828501611c11565b91505092915050565b6000819050919050565b611edc81611ec9565b82525050565b6000602082019050611ef76000830184611ed3565b92915050565b6000819050919050565b6000611f22611f1d611f1884611bc8565b611efd565b611bc8565b9050919050565b6000611f3482611f07565b9050919050565b6000611f4682611f29565b9050919050565b611f5681611f3b565b82525050565b600081519050919050565b600082825260208201905092915050565b60005b83811015611f96578082015181840152602081019050611f7b565b83811115611fa5576000848401525b50505050565b6000611fb682611f5c565b611fc08185611f67565b9350611fd0818560208601611f78565b611fd981611c70565b840191505092915050565b611fed81611b92565b82525050565b60008115159050919050565b61200881611ff3565b82525050565b60006080830160008301516120266000860182611f4d565b506020830151848203602086015261203e8282611fab565b91505060408301516120536040860182611fe4565b5060608301516120666060860182611fff565b508091505092915050565b6000602082019050818103600083015261208b818461200e565b905092915050565b600061209e82611f29565b9050919050565b6120ae81612093565b82525050565b60006020820190506120c960008301846120a5565b92915050565b600082825260208201905092915050565b7f546f6b656e206e6f7420737570706f7274656400000000000000000000000000600082015250565b60006121166013836120cf565b9150612121826120e0565b602082019050919050565b6000602082019050818103600083015261214581612109565b9050919050565b7f5769746864726177696e6720746f6f206d756368000000000000000000000000600082015250565b60006121826014836120cf565b915061218d8261214c565b602082019050919050565b600060208201905081810360008301526121b181612175565b9050919050565b60006040820190506121cd6000830185611e48565b6121da6020830184611e72565b9392505050565b6121ea81611ff3565b81146121f557600080fd5b50565b600081519050612207816121e1565b92915050565b60006020828403121561222357612222611b88565b5b6000612231848285016121f8565b91505092915050565b7f4e487b7100000000000000000000000000000000000000000000000000000000600052601160045260246000fd5b600061227482611b92565b915061227f83611b92565b9250828210156122925761229161223a565b5b828203905092915050565b60006060820190506122b26000830186611e72565b6122bf6020830185611e48565b6122cc6040830184611e48565b949350505050565b7f546f6b656e20616c726561647920737570706f72746564000000000000000000600082015250565b600061230a6017836120cf565b9150612315826122d4565b602082019050919050565b60006020820190508181036000830152612339816122fd565b9050919050565b7f4e487b7100000000000000000000000000000000000000000000000000000000600052603260045260246000fd5b600061237a82611b92565b91507fffffffffffffffffffffffffffffffffffffffffffffffffffffffffffffffff82036123ac576123ab61223a565b5b600182019050919050565b7f4e6f207265776172647320746f206265206d696e746564000000000000000000600082015250565b60006123ed6017836120cf565b91506123f8826123b7565b602082019050919050565b6000602082019050818103600083015261241c816123e0565b9050919050565b60006040820190506124386000830185611e72565b6124456020830184611e48565b9392505050565b60006060820190506124616000830186611e48565b61246e6020830185611e48565b61247b6040830184611e72565b949350505050565b600061248e82611b92565b915061249983611b92565b9250827fffffffffffffffffffffffffffffffffffffffffffffffffffffffffffffffff038211156124ce576124cd61223a565b5b828201905092915050565b7f4e487b7100000000000000000000000000000000000000000000000000000000600052602260045260246000fd5b6000600282049050600182168061252057607f821691505b602082108103612533576125326124d9565b5b50919050565b60008190508160005260206000209050919050565b6000815461255b81612508565b61256581866120cf565b945060018216600081146125805760018114612592576125c5565b60ff19831686526020860193506125c5565b61259b85612539565b60005b838110156125bd5781548189015260018201915060208101905061259e565b808801955050505b50505092915050565b600060208201905081810360008301526125e8818461254e565b905092915050565b6125f981611ec9565b811461260457600080fd5b50565b600081519050612616816125f0565b92915050565b60006020828403121561263257612631611b88565b5b600061264084828501612607565b91505092915050565b7f4f776e61626c653a206e6577206f776e657220697320746865207a65726f206160008201527f6464726573730000000000000000000000000000000000000000000000000000602082015250565b60006126a56026836120cf565b91506126b082612649565b604082019050919050565b600060208201905081810360008301526126d481612698565b9050919050565b7f4f776e61626c653a2063616c6c6572206973206e6f7420746865206f776e6572600082015250565b60006127116020836120cf565b915061271c826126db565b602082019050919050565b6000602082019050818103600083015261274081612704565b9050919050565b600061275282611b92565b915061275d83611b92565b9250817fffffffffffffffffffffffffffffffffffffffffffffffffffffffffffffffff04831182151516156127965761279561223a565b5b828202905092915050565b7f4e487b7100000000000000000000000000000000000000000000000000000000600052601260045260246000fd5b60006127db82611b92565b91506127e683611b92565b9250826127f6576127f56127a1565b5b82820490509291505056fea2646970667358221220adb15ad50e8a5a3c67cbf37fba837597c210d45fc93e9d5074f7ce71328907e064736f6c634300080e003360806040523480156200001157600080fd5b50738e67a0cffbbf6a346ce87dfe06dae2dc782b32196000604051620000379062000db1565b908152602001604051809103902060006101000a81548173ffffffffffffffffffffffffffffffffffffffff021916908373ffffffffffffffffffffffffffffffffffffffff160217905550738993ed705cdf5e84d0a3b754b5ee0e1783fcdf166000604051620000a89062000e18565b908152602001604051809103902060006101000a81548173ffffffffffffffffffffffffffffffffffffffff021916908373ffffffffffffffffffffffffffffffffffffffff160217905550736135b13325bfc4b00278b4abc5e20bbce2d6580e6000604051620001199062000e7f565b908152602001604051809103902060006101000a81548173ffffffffffffffffffffffffffffffffffffffff021916908373ffffffffffffffffffffffffffffffffffffffff16021790555073ed0616bef04d374969f302a34ae4a63882490a8c60006040516200018a9062000ee6565b908152602001604051809103902060006101000a81548173ffffffffffffffffffffffffffffffffffffffff021916908373ffffffffffffffffffffffffffffffffffffffff16021790555073ecf93d14d25e02ba2c13698eedca9aa98348efb66000604051620001fb9062000f4d565b908152602001604051809103902060006101000a81548173ffffffffffffffffffffffffffffffffffffffff021916908373ffffffffffffffffffffffffffffffffffffffff160217905550735813a90f826e16db392abd2af7966313fc1fd5b860006040516200026c9062000fb4565b908152602001604051809103902060006101000a81548173ffffffffffffffffffffffffffffffffffffffff021916908373ffffffffffffffffffffffffffffffffffffffff16021790555073777a68032a88e5a84678a77af2cd65a7b3c0775a6000604051620002dd906200101b565b908152602001604051809103902060006101000a81548173ffffffffffffffffffffffffffffffffffffffff021916908373ffffffffffffffffffffffffffffffffffffffff160217905550739326bfa02add2366b30bacb125260af64103133160006040516200034e9062001082565b908152602001604051809103902060006101000a81548173ffffffffffffffffffffffffffffffffffffffff021916908373ffffffffffffffffffffffffffffffffffffffff160217905550730c15ab9a0db086e062194c273cc79f41597bbf136000604051620003bf90620010e9565b908152602001604051809103902060006101000a81548173ffffffffffffffffffffffffffffffffffffffff021916908373ffffffffffffffffffffffffffffffffffffffff16021790555073c9129fac7ce4d3dc72714fd9d5285fb2fdb525926000604051620004309062001150565b908152602001604051809103902060006101000a81548173ffffffffffffffffffffffffffffffffffffffff021916908373ffffffffffffffffffffffffffffffffffffffff1602179055507328b0061f44e6a9780224aa61bec8c3fcb0d37de96000604051620004a190620011b7565b908152602001604051809103902060006101000a81548173ffffffffffffffffffffffffffffffffffffffff021916908373ffffffffffffffffffffffffffffffffffffffff16021790555073d627b1ef3ac23f1d3e576fa6206126f3c1bd0942600060405162000512906200121e565b908152602001604051809103902060006101000a81548173ffffffffffffffffffffffffffffffffffffffff021916908373ffffffffffffffffffffffffffffffffffffffff160217905550739e465c5499023675051517e9ee5f4c334d91e3696000604051620005839062001285565b908152602001604051809103902060006101000a81548173ffffffffffffffffffffffffffffffffffffffff021916908373ffffffffffffffffffffffffffffffffffffffff16021790555073396c5e36dd0a0f5a5d33dae44368d4193f69a1f06000604051620005f490620012ec565b908152602001604051809103902060006101000a81548173ffffffffffffffffffffffffffffffffffffffff021916908373ffffffffffffffffffffffffffffffffffffffff16021790555073cee03cf92c7ffc1bad8eaa572d69a4b61b6d46406000604051620006659062001353565b908152602001604051809103902060006101000a81548173ffffffffffffffffffffffffffffffffffffffff021916908373ffffffffffffffffffffffffffffffffffffffff1602179055507348c9ff5bfd7d12e3c511022a6e54fb1c5b8dc3ea6000604051620006d690620013ba565b908152602001604051809103902060006101000a81548173ffffffffffffffffffffffffffffffffffffffff021916908373ffffffffffffffffffffffffffffffffffffffff1602179055507384fdc8dd500f29902c99c928af2a91970e7432b66000604051620007479062001421565b908152602001604051809103902060006101000a81548173ffffffffffffffffffffffffffffffffffffffff021916908373ffffffffffffffffffffffffffffffffffffffff160217905550738f4e77806efec092a279ac6a49e129e560b4210e6000604051620007b89062001488565b908152602001604051809103902060006101000a81548173ffffffffffffffffffffffffffffffffffffffff021916908373ffffffffffffffffffffffffffffffffffffffff1602179055507331f93da9823d737b7e44bdee0df389fe62fd1acd60006040516200082990620014ef565b908152602001604051809103902060006101000a81548173ffffffffffffffffffffffffffffffffffffffff021916908373ffffffffffffffffffffffffffffffffffffffff160217905550739477f0e5bfabaf253eacee3bee3ccf08b46cc79c60006040516200089a9062001556565b908152602001604051809103902060006101000a81548173ffffffffffffffffffffffffffffffffffffffff021916908373ffffffffffffffffffffffffffffffffffffffff16021790555073b31357d152638fd1ae0853d24b9ea81df29e3ef260006040516200090b90620015bd565b908152602001604051809103902060006101000a81548173ffffffffffffffffffffffffffffffffffffffff021916908373ffffffffffffffffffffffffffffffffffffffff16021790555073da5904bdbfb4ef12a3955aeca103f51dc87c7c3960006040516200097c9062001624565b908152602001604051809103902060006101000a81548173ffffffffffffffffffffffffffffffffffffffff021916908373ffffffffffffffffffffffffffffffffffffffff160217905550739211c6b3bf41a10f78539810cf5c64e1bb78ec606000604051620009ed906200168b565b908152602001604051809103902060006101000a81548173ffffffffffffffffffffffffffffffffffffffff021916908373ffffffffffffffffffffffffffffffffffffffff160217905550736d393f929e213d2ca67a7fa73108a42b884f5f74600060405162000a5e90620016f2565b908152602001604051809103902060006101000a81548173ffffffffffffffffffffffffffffffffffffffff021916908373ffffffffffffffffffffffffffffffffffffffff160217905550734594051c018ac096222b5077c3351d523f93a963600060405162000acf9062001759565b908152602001604051809103902060006101000a81548173ffffffffffffffffffffffffffffffffffffffff021916908373ffffffffffffffffffffffffffffffffffffffff16021790555073c8fb5684f2707c82f28595deac017bfdf44ee9c5600060405162000b4090620017c0565b908152602001604051809103902060006101000a81548173ffffffffffffffffffffffffffffffffffffffff021916908373ffffffffffffffffffffffffffffffffffffffff160217905550733ea2b7e3ed9ea9120c3d6699240d1ff2184ac8b3600060405162000bb19062001827565b908152602001604051809103902060006101000a81548173ffffffffffffffffffffffffffffffffffffffff021916908373ffffffffffffffffffffffffffffffffffffffff16021790555073c6f39246494f25bbcb0a8018796890037cb5980c600060405162000c22906200188e565b908152602001604051809103902060006101000a81548173ffffffffffffffffffffffffffffffffffffffff021916908373ffffffffffffffffffffffffffffffffffffffff1602179055507324d6b177cf20166cd8f55caafe1c745b44f6c203600060405162000c9390620018f5565b908152602001604051809103902060006101000a81548173ffffffffffffffffffffffffffffffffffffffff021916908373ffffffffffffffffffffffffffffffffffffffff16021790555073a85646318d20c684f6251097d24a6e74fe1ed5eb600060405162000d04906200195c565b908152602001604051809103902060006101000a81548173ffffffffffffffffffffffffffffffffffffffff021916908373ffffffffffffffffffffffffffffffffffffffff16021790555062001973565b600081905092915050565b7f4241540000000000000000000000000000000000000000000000000000000000600082015250565b600062000d9960038362000d56565b915062000da68262000d61565b600382019050919050565b600062000dbe8262000d8a565b9150819050919050565b7f424e420000000000000000000000000000000000000000000000000000000000600082015250565b600062000e0060038362000d56565b915062000e0d8262000dc8565b600382019050919050565b600062000e258262000df1565b9150819050919050565b7f4254430000000000000000000000000000000000000000000000000000000000600082015250565b600062000e6760038362000d56565b915062000e748262000e2f565b600382019050919050565b600062000e8c8262000e58565b9150819050919050565b7f4348460000000000000000000000000000000000000000000000000000000000600082015250565b600062000ece60038362000d56565b915062000edb8262000e96565b600382019050919050565b600062000ef38262000ebf565b9150819050919050565b7f434f4d5000000000000000000000000000000000000000000000000000000000600082015250565b600062000f3560048362000d56565b915062000f428262000efd565b600482019050919050565b600062000f5a8262000f26565b9150819050919050565b7f4155440000000000000000000000000000000000000000000000000000000000600082015250565b600062000f9c60038362000d56565b915062000fa98262000f64565b600382019050919050565b600062000fc18262000f8d565b9150819050919050565b7f4441490000000000000000000000000000000000000000000000000000000000600082015250565b60006200100360038362000d56565b9150620010108262000fcb565b600382019050919050565b6000620010288262000ff4565b9150819050919050565b7f4554480000000000000000000000000000000000000000000000000000000000600082015250565b60006200106a60038362000d56565b9150620010778262001032565b600382019050919050565b60006200108f826200105b565b9150819050919050565b7f4555520000000000000000000000000000000000000000000000000000000000600082015250565b6000620010d160038362000d56565b9150620010de8262001099565b600382019050919050565b6000620010f682620010c2565b9150819050919050565b7f464f525448000000000000000000000000000000000000000000000000000000600082015250565b60006200113860058362000d56565b9150620011458262001100565b600582019050919050565b60006200115d8262001129565b9150819050919050565b7f4742500000000000000000000000000000000000000000000000000000000000600082015250565b60006200119f60038362000d56565b9150620011ac8262001167565b600382019050919050565b6000620011c48262001190565b9150819050919050565b7f4a50590000000000000000000000000000000000000000000000000000000000600082015250565b60006200120660038362000d56565b91506200121382620011ce565b600382019050919050565b60006200122b82620011f7565b9150819050919050565b7f4b52570000000000000000000000000000000000000000000000000000000000600082015250565b60006200126d60038362000d56565b91506200127a8262001235565b600382019050919050565b600062001292826200125e565b9150819050919050565b7f4c494e4b00000000000000000000000000000000000000000000000000000000600082015250565b6000620012d460048362000d56565b9150620012e1826200129c565b600482019050919050565b6000620012f982620012c5565b9150819050919050565b7f4c54430000000000000000000000000000000000000000000000000000000000600082015250565b60006200133b60038362000d56565b9150620013488262001303565b600382019050919050565b600062001360826200132c565b9150819050919050565b7f4f696c0000000000000000000000000000000000000000000000000000000000600082015250565b6000620013a260038362000d56565b9150620013af826200136a565b600382019050919050565b6000620013c78262001393565b9150819050919050565b7f5048500000000000000000000000000000000000000000000000000000000000600082015250565b60006200140960038362000d56565b91506200141682620013d1565b600382019050919050565b60006200142e82620013fa565b9150819050919050565b7f5245500000000000000000000000000000000000000000000000000000000000600082015250565b60006200147060038362000d56565b91506200147d8262001438565b600382019050919050565b6000620014958262001461565b9150819050919050565b7f534e580000000000000000000000000000000000000000000000000000000000600082015250565b6000620014d760038362000d56565b9150620014e4826200149f565b600382019050919050565b6000620014fc82620014c8565b9150819050919050565b7f5452580000000000000000000000000000000000000000000000000000000000600082015250565b60006200153e60038362000d56565b91506200154b8262001506565b600382019050919050565b600062001563826200152f565b9150819050919050565b7f54534c4100000000000000000000000000000000000000000000000000000000600082015250565b6000620015a560048362000d56565b9150620015b2826200156d565b600482019050919050565b6000620015ca8262001596565b9150819050919050565b7f554e492000000000000000000000000000000000000000000000000000000000600082015250565b60006200160c60048362000d56565b91506200161982620015d4565b600482019050919050565b60006200163182620015fd565b9150819050919050565b7f5553444320000000000000000000000000000000000000000000000000000000600082015250565b60006200167360058362000d56565b915062001680826200163b565b600582019050919050565b6000620016988262001664565b9150819050919050565b7f56454c4f00000000000000000000000000000000000000000000000000000000600082015250565b6000620016da60048362000d56565b9150620016e782620016a2565b600482019050919050565b6000620016ff82620016cb565b9150819050919050565b7f5841470000000000000000000000000000000000000000000000000000000000600082015250565b60006200174160038362000d56565b91506200174e8262001709565b600382019050919050565b6000620017668262001732565b9150819050919050565b7f5841550000000000000000000000000000000000000000000000000000000000600082015250565b6000620017a860038362000d56565b9150620017b58262001770565b600382019050919050565b6000620017cd8262001799565b9150819050919050565b7f5852500000000000000000000000000000000000000000000000000000000000600082015250565b60006200180f60038362000d56565b91506200181c82620017d7565b600382019050919050565b6000620018348262001800565b9150819050919050565b7f58545a0000000000000000000000000000000000000000000000000000000000600082015250565b60006200187660038362000d56565b915062001883826200183e565b600382019050919050565b60006200189b8262001867565b9150819050919050565b7f5a52580000000000000000000000000000000000000000000000000000000000600082015250565b6000620018dd60038362000d56565b9150620018ea82620018a5565b600382019050919050565b60006200190282620018ce565b9150819050919050565b7f7343455800000000000000000000000000000000000000000000000000000000600082015250565b60006200194460048362000d56565b915062001951826200190c565b600482019050919050565b6000620019698262001935565b9150819050919050565b6104e280620019836000396000f3fe608060405234801561001057600080fd5b506004361061002b5760003560e01c8063f66a1b7114610030575b600080fd5b61004a6004803603810190610045919061027f565b610060565b60405161005791906102e1565b60405180910390f35b6000806000836040516100739190610376565b908152602001604051809103902060009054906101000a900473ffffffffffffffffffffffffffffffffffffffff16905060008173ffffffffffffffffffffffffffffffffffffffff1663feaf968c6040518163ffffffff1660e01b815260040160a060405180830381865afa1580156100f1573d6000803e3d6000fd5b505050506040513d601f19601f820116820180604052508101906101159190610431565b5050509150508092505050919050565b6000604051905090565b600080fd5b600080fd5b600080fd5b600080fd5b6000601f19601f8301169050919050565b7f4e487b7100000000000000000000000000000000000000000000000000000000600052604160045260246000fd5b61018c82610143565b810181811067ffffffffffffffff821117156101ab576101aa610154565b5b80604052505050565b60006101be610125565b90506101ca8282610183565b919050565b600067ffffffffffffffff8211156101ea576101e9610154565b5b6101f382610143565b9050602081019050919050565b82818337600083830152505050565b600061022261021d846101cf565b6101b4565b90508281526020810184848401111561023e5761023d61013e565b5b610249848285610200565b509392505050565b600082601f83011261026657610265610139565b5b813561027684826020860161020f565b91505092915050565b6000602082840312156102955761029461012f565b5b600082013567ffffffffffffffff8111156102b3576102b2610134565b5b6102bf84828501610251565b91505092915050565b6000819050919050565b6102db816102c8565b82525050565b60006020820190506102f660008301846102d2565b92915050565b600081519050919050565b600081905092915050565b60005b83811015610330578082015181840152602081019050610315565b8381111561033f576000848401525b50505050565b6000610350826102fc565b61035a8185610307565b935061036a818560208601610312565b80840191505092915050565b60006103828284610345565b915081905092915050565b600069ffffffffffffffffffff82169050919050565b6103ac8161038d565b81146103b757600080fd5b50565b6000815190506103c9816103a3565b92915050565b6103d8816102c8565b81146103e357600080fd5b50565b6000815190506103f5816103cf565b92915050565b6000819050919050565b61040e816103fb565b811461041957600080fd5b50565b60008151905061042b81610405565b92915050565b600080600080600060a0868803121561044d5761044c61012f565b5b600061045b888289016103ba565b955050602061046c888289016103e6565b945050604061047d8882890161041c565b935050606061048e8882890161041c565b925050608061049f888289016103ba565b915050929550929590935056fea26469706673582212203e3dd3c0aeb2c769915ddc0526f73f5bab799b4e711f47b4714fb56270ebeb8564736f6c634300080e0033",
  "immutableReferences": {},
  "source": "// SPDX-License-Identifier: MIT\npragma solidity 0.8.14;\n//we use ERC20 instead of IERC20 because we might need to access name or symbol\n//if we end up not using those, it should be change back to IERC20\nimport \"../node_modules/@openzeppelin/contracts/token/ERC20/ERC20.sol\";\nimport \"../node_modules/@openzeppelin/contracts/access/Ownable.sol\";\nimport \"./D4Atoken.sol\";\nimport \"./ChainlinkKovanUSD.sol\";\n\ncontract Market is Ownable {\n\n    // We need to keep the timestamp of the last transaction(deposit, withdraw or claim) to calculate the reward balance at each of those actions\n    struct  Reserve {\n        ERC20 token;\n        string priceSymbol;\n        uint rewardPerHourFor1TKN; //we want X tokens per hour for 1 stacked token\n        bool isSupported;\n    }\n\n    struct  Balance {\n        uint amount;\n        uint lastTransactTimeStamp;\n    }\n    \n    mapping(address => Reserve) private reserves;\n    //we make a map for each users addresses we have a map of token addresses to the user balance in that token\n    mapping(address => mapping(address => Balance)) private balances;\n    //the amount of rewards for each users\n    mapping(address => uint) private rewardBalances;\n    //we have to keep the address of token accepted to iterate over the map when we claim\n    //because onlyOwner can add tokens we shouldn't have an array too big\n    address[] public tokens;\n    D4Atoken public rewardToken;\n    ChainlinkKovanUSD pricesUSD;\n    \n    event TokenAdded(address asset);\n    event Deposited(uint amount, address asset, address user);\n    event Withdrawn(uint amount, address asset, address user);\n    event RewardUpdated(uint amount, address user);\n    event Claimed(uint amount, address user);\n\n    modifier onlySupportedToken(address _asset) {\n        require(reserves[_asset].isSupported, \"Token not supported\");\n        _;\n    }\n\n    constructor(D4Atoken _rewardToken) {\n        rewardToken = _rewardToken;\n        pricesUSD = new ChainlinkKovanUSD();\n    } \n\n    //Owner can add ERC20 token with their addresses\n    function addToken(address _asset, uint _rewardPerHourFor1TKN, string memory _priceSymbol) external onlyOwner {\n        require(reserves[_asset].isSupported == false ,\"Token already supported\");\n        reserves[_asset] = Reserve({\n            token: ERC20(_asset), \n            priceSymbol : _priceSymbol,\n            rewardPerHourFor1TKN: _rewardPerHourFor1TKN,\n            isSupported: true\n        });\n        tokens.push(_asset);\n        emit TokenAdded(_asset);\n    }\n\n    function priceOf(address _asset) external view onlySupportedToken(_asset) returns (int) {\n        return pricesUSD.getLatestPrice(reserves[_asset].priceSymbol);\n    }\n\n    //BE CAREFULL of reentrency !\n    function deposit(uint _amount, address _asset) external onlySupportedToken(_asset) {\n        reserves[_asset].token.transferFrom(msg.sender, address(this), _amount);\n        balances[msg.sender][_asset].lastTransactTimeStamp = block.timestamp;\n        updateRewardBalance(_asset);\n        balances[msg.sender][_asset].amount += _amount;\n        emit Deposited(_amount, _asset, msg.sender);\n    }\n\n    function withdraw(uint _amount, address _asset) external onlySupportedToken(_asset) {\n        // require(reserves[asset].balanceOf(address(this)) >= amount, \"Withdrawing too much\"); pretty sure it's useless because the transfert will simply not append\n        require(getBalance(_asset) >= _amount, \"Withdrawing too much\");\n        reserves[_asset].token.transfer(msg.sender, _amount);\n        updateRewardBalance(_asset);\n        balances[msg.sender][_asset].amount -= _amount;\n        if(getBalance(_asset) > 0 ){\n            balances[msg.sender][_asset].lastTransactTimeStamp = block.timestamp;\n        } else {\n            balances[msg.sender][_asset].lastTransactTimeStamp = 0;\n        }\n        emit Withdrawn(_amount,  _asset, msg.sender);\n    }\n\n    function claim() external {\n        address tokenAddr;\n        uint reward;\n        for(uint i = 0; i < tokens.length; ++i){\n            tokenAddr = tokens[i];\n            if(getLastTransact(tokenAddr) > 0 ) {\n                updateRewardBalance(tokenAddr);\n                balances[msg.sender][tokenAddr].lastTransactTimeStamp = block.timestamp;\n            }\n        }\n        require(rewardBalances[msg.sender] > 0, \"No rewards to be minted\");\n        reward = rewardBalances[msg.sender];\n        rewardBalances[msg.sender] = 0;\n        rewardToken.mint(msg.sender, reward);\n        emit Claimed(reward, msg.sender);\n    }\n\n    function updateRewardBalance(address _asset) private onlySupportedToken(_asset) {\n        rewardBalances[msg.sender] += calculateRewardEarned(_asset);\n        emit RewardUpdated(rewardBalances[msg.sender], msg.sender);\n    }\n\n    function calculateRewardEarned(address _asset) private view onlySupportedToken(_asset) returns(uint) {\n        //(amount * rewardPerHourOfAssetForToken) / nbrOfTokenForRewardPerhour\n        uint currentBalance = getBalance(_asset);\n        uint lastTransact = getLastTransact(_asset);\n        uint rewardPerHourFor1TKN = reserves[_asset].rewardPerHourFor1TKN;\n        if(lastTransact > 0 && currentBalance > 0) {\n            //We have to calculate the number of rewards by hour for the current balance\n            uint rewardCurrentBalance = (currentBalance * rewardPerHourFor1TKN)/(1 ether);\n            //We can now calculate the rewards gained\n            return ((block.timestamp - lastTransact) * rewardCurrentBalance) / 3600;\n        } else {\n            return 0;\n        }\n    }\n\n    //This function allow to check the global rewards for any account without modifying state variables\n    function calculateTotalRewardEarned() public view returns(uint) {\n        address tokenAddr;\n        uint totalRewards = rewardBalances[msg.sender];\n        for(uint i = 0; i < tokens.length; ++i){\n            tokenAddr = tokens[i];\n            if( getLastTransact(tokenAddr) > 0 ) {\n                totalRewards += calculateRewardEarned(tokenAddr);\n            }\n        }\n        return totalRewards;\n    }\n\n\n    function getBalance(address _asset) public view onlySupportedToken(_asset) returns(uint) {\n        return balances[msg.sender][_asset].amount;\n    }\n\n    // This should hep fot test to get the exact reward between two times\n    function getLastTransact(address _asset) public view onlySupportedToken(_asset) returns(uint) {\n        return balances[msg.sender][_asset].lastTransactTimeStamp;\n    }\n\n    //used for tests\n    function getReserve(address _asset) public view onlySupportedToken(_asset) returns(Reserve memory) {\n        return reserves[_asset];\n    }\n\n    //used for tests\n    function getRewardBalance() public view returns(uint) {\n        return rewardBalances[msg.sender];\n    }\n}\n",
  "sourcePath": "/mnt/c/Work/Alyra/Ubuntu/Projets/Alyra_DeFi/truffle/contracts/Market.sol",
  "compiler": {
    "name": "solc",
    "version": "0.8.14+commit.80d49f37.Emscripten.clang"
  },
  "schemaVersion": "3.4.8",
  "updatedAt": "2022-08-05T22:31:01.086Z",
  "networkType": "ethereum",
  "devdoc": {
    "kind": "dev",
    "methods": {
      "owner()": {
        "details": "Returns the address of the current owner."
      },
      "renounceOwnership()": {
        "details": "Leaves the contract without owner. It will not be possible to call `onlyOwner` functions anymore. Can only be called by the current owner. NOTE: Renouncing ownership will leave the contract without an owner, thereby removing any functionality that is only available to the owner."
      },
      "transferOwnership(address)": {
        "details": "Transfers ownership of the contract to a new account (`newOwner`). Can only be called by the current owner."
      }
    },
    "version": 1
  },
  "userdoc": {
    "kind": "user",
    "methods": {},
    "version": 1
  }
}