{
  "contractName": "Market",
  "abi": [
    {
      "inputs": [
        {
          "internalType": "contract D4Atoken",
          "name": "_rewardToken",
          "type": "address"
        }
      ],
      "stateMutability": "nonpayable",
      "type": "constructor"
    },
    {
      "anonymous": false,
      "inputs": [
        {
          "indexed": false,
          "internalType": "uint256",
          "name": "amount",
          "type": "uint256"
        },
        {
          "indexed": false,
          "internalType": "address",
          "name": "user",
          "type": "address"
        }
      ],
      "name": "Claimed",
      "type": "event"
    },
    {
      "anonymous": false,
      "inputs": [
        {
          "indexed": false,
          "internalType": "uint256",
          "name": "amount",
          "type": "uint256"
        },
        {
          "indexed": false,
          "internalType": "address",
          "name": "asset",
          "type": "address"
        },
        {
          "indexed": false,
          "internalType": "address",
          "name": "user",
          "type": "address"
        }
      ],
      "name": "Deposited",
      "type": "event"
    },
    {
      "anonymous": false,
      "inputs": [
        {
          "indexed": true,
          "internalType": "address",
          "name": "previousOwner",
          "type": "address"
        },
        {
          "indexed": true,
          "internalType": "address",
          "name": "newOwner",
          "type": "address"
        }
      ],
      "name": "OwnershipTransferred",
      "type": "event"
    },
    {
      "anonymous": false,
      "inputs": [
        {
          "indexed": false,
          "internalType": "uint256",
          "name": "amount",
          "type": "uint256"
        },
        {
          "indexed": false,
          "internalType": "address",
          "name": "user",
          "type": "address"
        }
      ],
      "name": "RewardUpdated",
      "type": "event"
    },
    {
      "anonymous": false,
      "inputs": [
        {
          "indexed": false,
          "internalType": "address",
          "name": "asset",
          "type": "address"
        }
      ],
      "name": "TokenAdded",
      "type": "event"
    },
    {
      "anonymous": false,
      "inputs": [
        {
          "indexed": false,
          "internalType": "uint256",
          "name": "amount",
          "type": "uint256"
        },
        {
          "indexed": false,
          "internalType": "address",
          "name": "asset",
          "type": "address"
        },
        {
          "indexed": false,
          "internalType": "address",
          "name": "user",
          "type": "address"
        }
      ],
      "name": "Withdrawn",
      "type": "event"
    },
    {
      "inputs": [],
      "name": "owner",
      "outputs": [
        {
          "internalType": "address",
          "name": "",
          "type": "address"
        }
      ],
      "stateMutability": "view",
      "type": "function",
      "constant": true
    },
    {
      "inputs": [],
      "name": "renounceOwnership",
      "outputs": [],
      "stateMutability": "nonpayable",
      "type": "function"
    },
    {
      "inputs": [],
      "name": "rewardToken",
      "outputs": [
        {
          "internalType": "contract D4Atoken",
          "name": "",
          "type": "address"
        }
      ],
      "stateMutability": "view",
      "type": "function",
      "constant": true
    },
    {
      "inputs": [
        {
          "internalType": "uint256",
          "name": "",
          "type": "uint256"
        }
      ],
      "name": "tokens",
      "outputs": [
        {
          "internalType": "address",
          "name": "",
          "type": "address"
        }
      ],
      "stateMutability": "view",
      "type": "function",
      "constant": true
    },
    {
      "inputs": [
        {
          "internalType": "address",
          "name": "newOwner",
          "type": "address"
        }
      ],
      "name": "transferOwnership",
      "outputs": [],
      "stateMutability": "nonpayable",
      "type": "function"
    },
    {
      "inputs": [
        {
          "internalType": "address",
          "name": "_asset",
          "type": "address"
        },
        {
          "internalType": "uint256",
          "name": "_rewardPerHourFor1TKN",
          "type": "uint256"
        }
      ],
      "name": "addToken",
      "outputs": [],
      "stateMutability": "nonpayable",
      "type": "function"
    },
    {
      "inputs": [
        {
          "internalType": "uint256",
          "name": "_amount",
          "type": "uint256"
        },
        {
          "internalType": "address",
          "name": "_asset",
          "type": "address"
        }
      ],
      "name": "deposit",
      "outputs": [],
      "stateMutability": "nonpayable",
      "type": "function"
    },
    {
      "inputs": [
        {
          "internalType": "uint256",
          "name": "_amount",
          "type": "uint256"
        },
        {
          "internalType": "address",
          "name": "_asset",
          "type": "address"
        }
      ],
      "name": "withdraw",
      "outputs": [],
      "stateMutability": "nonpayable",
      "type": "function"
    },
    {
      "inputs": [],
      "name": "claim",
      "outputs": [],
      "stateMutability": "nonpayable",
      "type": "function"
    },
    {
      "inputs": [],
      "name": "calculateTotalRewardEarned",
      "outputs": [
        {
          "internalType": "uint256",
          "name": "",
          "type": "uint256"
        }
      ],
      "stateMutability": "view",
      "type": "function",
      "constant": true
    },
    {
      "inputs": [
        {
          "internalType": "address",
          "name": "_asset",
          "type": "address"
        }
      ],
      "name": "getBalance",
      "outputs": [
        {
          "internalType": "uint256",
          "name": "",
          "type": "uint256"
        }
      ],
      "stateMutability": "view",
      "type": "function",
      "constant": true
    },
    {
      "inputs": [
        {
          "internalType": "address",
          "name": "_asset",
          "type": "address"
        }
      ],
      "name": "getLastTransact",
      "outputs": [
        {
          "internalType": "uint256",
          "name": "",
          "type": "uint256"
        }
      ],
      "stateMutability": "view",
      "type": "function",
      "constant": true
    },
    {
      "inputs": [
        {
          "internalType": "address",
          "name": "_asset",
          "type": "address"
        }
      ],
      "name": "getReserve",
      "outputs": [
        {
          "components": [
            {
              "internalType": "contract ERC20",
              "name": "token",
              "type": "address"
            },
            {
              "internalType": "uint256",
              "name": "rewardPerHourFor1TKN",
              "type": "uint256"
            },
            {
              "internalType": "bool",
              "name": "isSupported",
              "type": "bool"
            }
          ],
          "internalType": "struct Market.Reserve",
          "name": "",
          "type": "tuple"
        }
      ],
      "stateMutability": "view",
      "type": "function",
      "constant": true
    },
    {
      "inputs": [],
      "name": "getRewardBalance",
      "outputs": [
        {
          "internalType": "uint256",
          "name": "",
          "type": "uint256"
        }
      ],
      "stateMutability": "view",
      "type": "function",
      "constant": true
    }
  ],
  "bytecode": "0x60806040523480156200001157600080fd5b5060405162002378380380620023788339818101604052810190620000379190620001e9565b620000576200004b6200009f60201b60201c565b620000a760201b60201c565b80600560006101000a81548173ffffffffffffffffffffffffffffffffffffffff021916908373ffffffffffffffffffffffffffffffffffffffff160217905550506200021b565b600033905090565b60008060009054906101000a900473ffffffffffffffffffffffffffffffffffffffff169050816000806101000a81548173ffffffffffffffffffffffffffffffffffffffff021916908373ffffffffffffffffffffffffffffffffffffffff1602179055508173ffffffffffffffffffffffffffffffffffffffff168173ffffffffffffffffffffffffffffffffffffffff167f8be0079c531659141344cd1fd0a4f28419497f9722a3daafe3b4186f6b6457e060405160405180910390a35050565b600080fd5b600073ffffffffffffffffffffffffffffffffffffffff82169050919050565b60006200019d8262000170565b9050919050565b6000620001b18262000190565b9050919050565b620001c381620001a4565b8114620001cf57600080fd5b50565b600081519050620001e381620001b8565b92915050565b6000602082840312156200020257620002016200016b565b5b60006200021284828501620001d2565b91505092915050565b61214d806200022b6000396000f3fe608060405234801561001057600080fd5b50600436106100e95760003560e01c806393e4f7b21161008c578063f2fde38b11610066578063f2fde38b14610222578063f34f04a61461023e578063f7c618c11461025c578063f8b2cb4f1461027a576100e9565b806393e4f7b2146101a6578063af81c5b9146101d6578063c9a396e9146101f2576100e9565b80635e42b455116100c85780635e42b455146101445780636e553f6514610162578063715018a61461017e5780638da5cb5b14610188576100e9565b8062f714ce146100ee5780634e71d92d1461010a5780634f64b2be14610114575b600080fd5b61010860048036038101906101039190611905565b6102aa565b005b610112610665565b005b61012e60048036038101906101299190611945565b61093f565b60405161013b9190611981565b60405180910390f35b61014c61097e565b60405161015991906119ab565b60405180910390f35b61017c60048036038101906101779190611905565b6109c5565b005b610186610c9b565b005b610190610caf565b60405161019d9190611981565b60405180910390f35b6101c060048036038101906101bb91906119c6565b610cd8565b6040516101cd91906119ab565b60405180910390f35b6101f060048036038101906101eb91906119f3565b610df2565b005b61020c600480360381019061020791906119c6565b611015565b6040516102199190611afe565b60405180910390f35b61023c600480360381019061023791906119c6565b61117a565b005b6102466111fd565b60405161025391906119ab565b60405180910390f35b6102646112d7565b6040516102719190611b3a565b60405180910390f35b610294600480360381019061028f91906119c6565b6112fd565b6040516102a191906119ab565b60405180910390f35b80600160008273ffffffffffffffffffffffffffffffffffffffff1673ffffffffffffffffffffffffffffffffffffffff16815260200190815260200160002060020160009054906101000a900460ff1661033a576040517f08c379a000000000000000000000000000000000000000000000000000000000815260040161033190611bb2565b60405180910390fd5b82610344836112fd565b1015610385576040517f08c379a000000000000000000000000000000000000000000000000000000000815260040161037c90611c1e565b60405180910390fd5b600160008373ffffffffffffffffffffffffffffffffffffffff1673ffffffffffffffffffffffffffffffffffffffff16815260200190815260200160002060000160009054906101000a900473ffffffffffffffffffffffffffffffffffffffff1673ffffffffffffffffffffffffffffffffffffffff1663a9059cbb33856040518363ffffffff1660e01b8152600401610422929190611c3e565b6020604051808303816000875af1158015610441573d6000803e3d6000fd5b505050506040513d601f19601f820116820180604052508101906104659190611c93565b5061046f82611417565b82600260003373ffffffffffffffffffffffffffffffffffffffff1673ffffffffffffffffffffffffffffffffffffffff16815260200190815260200160002060008473ffffffffffffffffffffffffffffffffffffffff1673ffffffffffffffffffffffffffffffffffffffff16815260200190815260200160002060000160008282546104fe9190611cef565b925050819055506000610510836112fd565b111561059f5742600260003373ffffffffffffffffffffffffffffffffffffffff1673ffffffffffffffffffffffffffffffffffffffff16815260200190815260200160002060008473ffffffffffffffffffffffffffffffffffffffff1673ffffffffffffffffffffffffffffffffffffffff16815260200190815260200160002060010181905550610625565b6000600260003373ffffffffffffffffffffffffffffffffffffffff1673ffffffffffffffffffffffffffffffffffffffff16815260200190815260200160002060008473ffffffffffffffffffffffffffffffffffffffff1673ffffffffffffffffffffffffffffffffffffffff168152602001908152602001600020600101819055505b7fb524bace85e4ce0f8da306e32f39263c5724780ca00b7551c051c8e3dc36adaf83833360405161065893929190611d23565b60405180910390a1505050565b60008060005b600480549050811015610769576004818154811061068c5761068b611d5a565b5b9060005260206000200160009054906101000a900473ffffffffffffffffffffffffffffffffffffffff16925060006106c484610cd8565b1115610758576106d383611417565b42600260003373ffffffffffffffffffffffffffffffffffffffff1673ffffffffffffffffffffffffffffffffffffffff16815260200190815260200160002060008573ffffffffffffffffffffffffffffffffffffffff1673ffffffffffffffffffffffffffffffffffffffff168152602001908152602001600020600101819055505b8061076290611d89565b905061066b565b506000600360003373ffffffffffffffffffffffffffffffffffffffff1673ffffffffffffffffffffffffffffffffffffffff16815260200190815260200160002054116107ec576040517f08c379a00000000000000000000000000000000000000000000000000000000081526004016107e390611e1d565b60405180910390fd5b600360003373ffffffffffffffffffffffffffffffffffffffff1673ffffffffffffffffffffffffffffffffffffffff1681526020019081526020016000205490506000600360003373ffffffffffffffffffffffffffffffffffffffff1673ffffffffffffffffffffffffffffffffffffffff16815260200190815260200160002081905550600560009054906101000a900473ffffffffffffffffffffffffffffffffffffffff1673ffffffffffffffffffffffffffffffffffffffff166340c10f1933836040518363ffffffff1660e01b81526004016108d0929190611c3e565b600060405180830381600087803b1580156108ea57600080fd5b505af11580156108fe573d6000803e3d6000fd5b505050507f6aa3eac93d079e5e100b1029be716caa33586c96aa4baac390669fb5c2a212128133604051610933929190611e3d565b60405180910390a15050565b6004818154811061094f57600080fd5b906000526020600020016000915054906101000a900473ffffffffffffffffffffffffffffffffffffffff1681565b6000600360003373ffffffffffffffffffffffffffffffffffffffff1673ffffffffffffffffffffffffffffffffffffffff16815260200190815260200160002054905090565b80600160008273ffffffffffffffffffffffffffffffffffffffff1673ffffffffffffffffffffffffffffffffffffffff16815260200190815260200160002060020160009054906101000a900460ff16610a55576040517f08c379a0000000000000000000000000000000000000000000000000000000008152600401610a4c90611bb2565b60405180910390fd5b600160008373ffffffffffffffffffffffffffffffffffffffff1673ffffffffffffffffffffffffffffffffffffffff16815260200190815260200160002060000160009054906101000a900473ffffffffffffffffffffffffffffffffffffffff1673ffffffffffffffffffffffffffffffffffffffff166323b872dd3330866040518463ffffffff1660e01b8152600401610af493929190611e66565b6020604051808303816000875af1158015610b13573d6000803e3d6000fd5b505050506040513d601f19601f82011682018060405250810190610b379190611c93565b5042600260003373ffffffffffffffffffffffffffffffffffffffff1673ffffffffffffffffffffffffffffffffffffffff16815260200190815260200160002060008473ffffffffffffffffffffffffffffffffffffffff1673ffffffffffffffffffffffffffffffffffffffff16815260200190815260200160002060010181905550610bc582611417565b82600260003373ffffffffffffffffffffffffffffffffffffffff1673ffffffffffffffffffffffffffffffffffffffff16815260200190815260200160002060008473ffffffffffffffffffffffffffffffffffffffff1673ffffffffffffffffffffffffffffffffffffffff1681526020019081526020016000206000016000828254610c549190611e9d565b925050819055507f7896c404bfb9173f4c61824c5e10e743eb885c3fe1c1727ed55ac3a51a350874838333604051610c8e93929190611d23565b60405180910390a1505050565b610ca3611581565b610cad60006115ff565b565b60008060009054906101000a900473ffffffffffffffffffffffffffffffffffffffff16905090565b600081600160008273ffffffffffffffffffffffffffffffffffffffff1673ffffffffffffffffffffffffffffffffffffffff16815260200190815260200160002060020160009054906101000a900460ff16610d6a576040517f08c379a0000000000000000000000000000000000000000000000000000000008152600401610d6190611bb2565b60405180910390fd5b600260003373ffffffffffffffffffffffffffffffffffffffff1673ffffffffffffffffffffffffffffffffffffffff16815260200190815260200160002060008473ffffffffffffffffffffffffffffffffffffffff1673ffffffffffffffffffffffffffffffffffffffff16815260200190815260200160002060010154915050919050565b610dfa611581565b60001515600160008473ffffffffffffffffffffffffffffffffffffffff1673ffffffffffffffffffffffffffffffffffffffff16815260200190815260200160002060020160009054906101000a900460ff16151514610e90576040517f08c379a0000000000000000000000000000000000000000000000000000000008152600401610e8790611f3f565b60405180910390fd5b60405180606001604052808373ffffffffffffffffffffffffffffffffffffffff16815260200182815260200160011515815250600160008473ffffffffffffffffffffffffffffffffffffffff1673ffffffffffffffffffffffffffffffffffffffff16815260200190815260200160002060008201518160000160006101000a81548173ffffffffffffffffffffffffffffffffffffffff021916908373ffffffffffffffffffffffffffffffffffffffff1602179055506020820151816001015560408201518160020160006101000a81548160ff0219169083151502179055509050506004829080600181540180825580915050600190039060005260206000200160009091909190916101000a81548173ffffffffffffffffffffffffffffffffffffffff021916908373ffffffffffffffffffffffffffffffffffffffff1602179055507f784c8f4dbf0ffedd6e72c76501c545a70f8b203b30a26ce542bf92ba87c248a4826040516110099190611981565b60405180910390a15050565b61101d611833565b81600160008273ffffffffffffffffffffffffffffffffffffffff1673ffffffffffffffffffffffffffffffffffffffff16815260200190815260200160002060020160009054906101000a900460ff166110ad576040517f08c379a00000000000000000000000000000000000000000000000000000000081526004016110a490611bb2565b60405180910390fd5b600160008473ffffffffffffffffffffffffffffffffffffffff1673ffffffffffffffffffffffffffffffffffffffff1681526020019081526020016000206040518060600160405290816000820160009054906101000a900473ffffffffffffffffffffffffffffffffffffffff1673ffffffffffffffffffffffffffffffffffffffff1673ffffffffffffffffffffffffffffffffffffffff168152602001600182015481526020016002820160009054906101000a900460ff161515151581525050915050919050565b611182611581565b600073ffffffffffffffffffffffffffffffffffffffff168173ffffffffffffffffffffffffffffffffffffffff16036111f1576040517f08c379a00000000000000000000000000000000000000000000000000000000081526004016111e890611fd1565b60405180910390fd5b6111fa816115ff565b50565b6000806000600360003373ffffffffffffffffffffffffffffffffffffffff1673ffffffffffffffffffffffffffffffffffffffff16815260200190815260200160002054905060005b6004805490508110156112ce576004818154811061126857611267611d5a565b5b9060005260206000200160009054906101000a900473ffffffffffffffffffffffffffffffffffffffff16925060006112a084610cd8565b11156112bd576112af836116c3565b826112ba9190611e9d565b91505b806112c790611d89565b9050611247565b50809250505090565b600560009054906101000a900473ffffffffffffffffffffffffffffffffffffffff1681565b600081600160008273ffffffffffffffffffffffffffffffffffffffff1673ffffffffffffffffffffffffffffffffffffffff16815260200190815260200160002060020160009054906101000a900460ff1661138f576040517f08c379a000000000000000000000000000000000000000000000000000000000815260040161138690611bb2565b60405180910390fd5b600260003373ffffffffffffffffffffffffffffffffffffffff1673ffffffffffffffffffffffffffffffffffffffff16815260200190815260200160002060008473ffffffffffffffffffffffffffffffffffffffff1673ffffffffffffffffffffffffffffffffffffffff16815260200190815260200160002060000154915050919050565b80600160008273ffffffffffffffffffffffffffffffffffffffff1673ffffffffffffffffffffffffffffffffffffffff16815260200190815260200160002060020160009054906101000a900460ff166114a7576040517f08c379a000000000000000000000000000000000000000000000000000000000815260040161149e90611bb2565b60405180910390fd5b6114b0826116c3565b600360003373ffffffffffffffffffffffffffffffffffffffff1673ffffffffffffffffffffffffffffffffffffffff16815260200190815260200160002060008282546114fe9190611e9d565b925050819055507fa7db2208fbbce7742b3103d7205e99d91f1c9a8243df48faf7651d7bf88e7b82600360003373ffffffffffffffffffffffffffffffffffffffff1673ffffffffffffffffffffffffffffffffffffffff1681526020019081526020016000205433604051611575929190611e3d565b60405180910390a15050565b61158961182b565b73ffffffffffffffffffffffffffffffffffffffff166115a7610caf565b73ffffffffffffffffffffffffffffffffffffffff16146115fd576040517f08c379a00000000000000000000000000000000000000000000000000000000081526004016115f49061203d565b60405180910390fd5b565b60008060009054906101000a900473ffffffffffffffffffffffffffffffffffffffff169050816000806101000a81548173ffffffffffffffffffffffffffffffffffffffff021916908373ffffffffffffffffffffffffffffffffffffffff1602179055508173ffffffffffffffffffffffffffffffffffffffff168173ffffffffffffffffffffffffffffffffffffffff167f8be0079c531659141344cd1fd0a4f28419497f9722a3daafe3b4186f6b6457e060405160405180910390a35050565b600081600160008273ffffffffffffffffffffffffffffffffffffffff1673ffffffffffffffffffffffffffffffffffffffff16815260200190815260200160002060020160009054906101000a900460ff16611755576040517f08c379a000000000000000000000000000000000000000000000000000000000815260040161174c90611bb2565b60405180910390fd5b6000611760846112fd565b9050600061176d85610cd8565b90506000600160008773ffffffffffffffffffffffffffffffffffffffff1673ffffffffffffffffffffffffffffffffffffffff1681526020019081526020016000206001015490506000821180156117c65750600083115b1561181d576000670de0b6b3a764000082856117e2919061205d565b6117ec91906120e6565b9050610e108184426117fe9190611cef565b611808919061205d565b61181291906120e6565b955050505050611825565b600094505050505b50919050565b600033905090565b6040518060600160405280600073ffffffffffffffffffffffffffffffffffffffff168152602001600081526020016000151581525090565b600080fd5b6000819050919050565b61188481611871565b811461188f57600080fd5b50565b6000813590506118a18161187b565b92915050565b600073ffffffffffffffffffffffffffffffffffffffff82169050919050565b60006118d2826118a7565b9050919050565b6118e2816118c7565b81146118ed57600080fd5b50565b6000813590506118ff816118d9565b92915050565b6000806040838503121561191c5761191b61186c565b5b600061192a85828601611892565b925050602061193b858286016118f0565b9150509250929050565b60006020828403121561195b5761195a61186c565b5b600061196984828501611892565b91505092915050565b61197b816118c7565b82525050565b60006020820190506119966000830184611972565b92915050565b6119a581611871565b82525050565b60006020820190506119c0600083018461199c565b92915050565b6000602082840312156119dc576119db61186c565b5b60006119ea848285016118f0565b91505092915050565b60008060408385031215611a0a57611a0961186c565b5b6000611a18858286016118f0565b9250506020611a2985828601611892565b9150509250929050565b6000819050919050565b6000611a58611a53611a4e846118a7565b611a33565b6118a7565b9050919050565b6000611a6a82611a3d565b9050919050565b6000611a7c82611a5f565b9050919050565b611a8c81611a71565b82525050565b611a9b81611871565b82525050565b60008115159050919050565b611ab681611aa1565b82525050565b606082016000820151611ad26000850182611a83565b506020820151611ae56020850182611a92565b506040820151611af86040850182611aad565b50505050565b6000606082019050611b136000830184611abc565b92915050565b6000611b2482611a5f565b9050919050565b611b3481611b19565b82525050565b6000602082019050611b4f6000830184611b2b565b92915050565b600082825260208201905092915050565b7f546f6b656e206e6f7420737570706f7274656400000000000000000000000000600082015250565b6000611b9c601383611b55565b9150611ba782611b66565b602082019050919050565b60006020820190508181036000830152611bcb81611b8f565b9050919050565b7f5769746864726177696e6720746f6f206d756368000000000000000000000000600082015250565b6000611c08601483611b55565b9150611c1382611bd2565b602082019050919050565b60006020820190508181036000830152611c3781611bfb565b9050919050565b6000604082019050611c536000830185611972565b611c60602083018461199c565b9392505050565b611c7081611aa1565b8114611c7b57600080fd5b50565b600081519050611c8d81611c67565b92915050565b600060208284031215611ca957611ca861186c565b5b6000611cb784828501611c7e565b91505092915050565b7f4e487b7100000000000000000000000000000000000000000000000000000000600052601160045260246000fd5b6000611cfa82611871565b9150611d0583611871565b925082821015611d1857611d17611cc0565b5b828203905092915050565b6000606082019050611d38600083018661199c565b611d456020830185611972565b611d526040830184611972565b949350505050565b7f4e487b7100000000000000000000000000000000000000000000000000000000600052603260045260246000fd5b6000611d9482611871565b91507fffffffffffffffffffffffffffffffffffffffffffffffffffffffffffffffff8203611dc657611dc5611cc0565b5b600182019050919050565b7f4e6f207265776172647320746f206265206d696e746564000000000000000000600082015250565b6000611e07601783611b55565b9150611e1282611dd1565b602082019050919050565b60006020820190508181036000830152611e3681611dfa565b9050919050565b6000604082019050611e52600083018561199c565b611e5f6020830184611972565b9392505050565b6000606082019050611e7b6000830186611972565b611e886020830185611972565b611e95604083018461199c565b949350505050565b6000611ea882611871565b9150611eb383611871565b9250827fffffffffffffffffffffffffffffffffffffffffffffffffffffffffffffffff03821115611ee857611ee7611cc0565b5b828201905092915050565b7f546f6b656e20616c726561647920737570706f72746564000000000000000000600082015250565b6000611f29601783611b55565b9150611f3482611ef3565b602082019050919050565b60006020820190508181036000830152611f5881611f1c565b9050919050565b7f4f776e61626c653a206e6577206f776e657220697320746865207a65726f206160008201527f6464726573730000000000000000000000000000000000000000000000000000602082015250565b6000611fbb602683611b55565b9150611fc682611f5f565b604082019050919050565b60006020820190508181036000830152611fea81611fae565b9050919050565b7f4f776e61626c653a2063616c6c6572206973206e6f7420746865206f776e6572600082015250565b6000612027602083611b55565b915061203282611ff1565b602082019050919050565b600060208201905081810360008301526120568161201a565b9050919050565b600061206882611871565b915061207383611871565b9250817fffffffffffffffffffffffffffffffffffffffffffffffffffffffffffffffff04831182151516156120ac576120ab611cc0565b5b828202905092915050565b7f4e487b7100000000000000000000000000000000000000000000000000000000600052601260045260246000fd5b60006120f182611871565b91506120fc83611871565b92508261210c5761210b6120b7565b5b82820490509291505056fea2646970667358221220053579afc67c8b697b875c3a7da1b6d2d838243e34eb92cb292e4cc79ddf588664736f6c634300080e0033",
  "immutableReferences": {},
  "source": "// SPDX-License-Identifier: MIT\npragma solidity 0.8.14;\n//we use ERC20 instead of IERC20 because we might need to access name or symbol\n//if we end up not using those, it should be change back to IERC20\nimport \"../node_modules/@openzeppelin/contracts/token/ERC20/ERC20.sol\";\nimport \"../node_modules/@openzeppelin/contracts/access/Ownable.sol\";\nimport \"./D4Atoken.sol\";\n\ncontract Market  is Ownable {\n\n    // We need to keep the timestamp of the last transaction(deposit, withdraw or claim) to calculate the reward balance at each of those actions\n    struct  Reserve {\n        ERC20 token;\n        uint rewardPerHourFor1TKN; //we want X tokens per hour for 1 stacked token\n        bool isSupported;\n    }\n\n    struct  Balance {\n        uint amount;\n        uint lastTransactTimeStamp;\n    }\n    \n    mapping(address => Reserve) private reserves;\n    //we make a map for each users addresses we have a map of token addresses to the user balance in that token\n    mapping(address => mapping(address => Balance)) private balances;\n    //the amount of rewards for each users\n    mapping(address => uint) private rewardBalances;\n    //we have to keep the address of token accepted to iterate over the map when we claim\n    //because onlyOwner can add tokens we shouldn't have an array too big\n    address[] public tokens;\n    D4Atoken public rewardToken;\n    \n    event TokenAdded(address asset);\n    event Deposited(uint amount, address asset, address user);\n    event Withdrawn(uint amount, address asset, address user);\n    event RewardUpdated(uint amount, address user);\n    event Claimed(uint amount, address user);\n\n    modifier onlySupportedToken(address _asset) {\n        require(reserves[_asset].isSupported, \"Token not supported\");\n        _;\n    }\n\n    constructor(D4Atoken _rewardToken) {\n        rewardToken = _rewardToken;\n    } \n\n    //Owner can add ERC20 token with their addresses\n    function addToken(address _asset, uint _rewardPerHourFor1TKN) external onlyOwner {\n        require(reserves[_asset].isSupported == false ,\"Token already supported\");\n        reserves[_asset] = Reserve({\n            token: ERC20(_asset), \n            rewardPerHourFor1TKN: _rewardPerHourFor1TKN,\n            isSupported: true\n        });\n        tokens.push(_asset);\n        emit TokenAdded(_asset);\n    }\n\n    //BE CAREFULL of reentrency !\n    function deposit(uint _amount, address _asset) external onlySupportedToken(_asset) {\n        reserves[_asset].token.transferFrom(msg.sender, address(this), _amount);\n        balances[msg.sender][_asset].lastTransactTimeStamp = block.timestamp;\n        updateRewardBalance(_asset);\n        balances[msg.sender][_asset].amount += _amount;\n        emit Deposited(_amount, _asset, msg.sender);\n    }\n\n    function withdraw(uint _amount, address _asset) external onlySupportedToken(_asset) {\n        // require(reserves[asset].balanceOf(address(this)) >= amount, \"Withdrawing too much\"); pretty sure it's useless because the transfert will simply not append\n        require(getBalance(_asset) >= _amount, \"Withdrawing too much\");\n        reserves[_asset].token.transfer(msg.sender, _amount);\n        updateRewardBalance(_asset);\n        balances[msg.sender][_asset].amount -= _amount;\n        if(getBalance(_asset) > 0 ){\n            balances[msg.sender][_asset].lastTransactTimeStamp = block.timestamp;\n        } else {\n            balances[msg.sender][_asset].lastTransactTimeStamp = 0;\n        }\n        emit Withdrawn(_amount,  _asset, msg.sender);\n    }\n\n    function claim() external {\n        address tokenAddr;\n        uint reward;\n        for(uint i = 0; i < tokens.length; ++i){\n            tokenAddr = tokens[i];\n            if(getLastTransact(tokenAddr) > 0 ) {\n                updateRewardBalance(tokenAddr);\n                balances[msg.sender][tokenAddr].lastTransactTimeStamp = block.timestamp;\n            }\n        }\n        require(rewardBalances[msg.sender] > 0, \"No rewards to be minted\");\n        reward = rewardBalances[msg.sender];\n        rewardBalances[msg.sender] = 0;\n        rewardToken.mint(msg.sender, reward);\n        emit Claimed(reward, msg.sender);\n    }\n\n    function updateRewardBalance(address _asset) private onlySupportedToken(_asset) {\n        rewardBalances[msg.sender] += calculateRewardEarned(_asset);\n        emit RewardUpdated(rewardBalances[msg.sender], msg.sender);\n    }\n\n    function calculateRewardEarned(address _asset) private view onlySupportedToken(_asset) returns(uint) {\n        //(amount * rewardPerHourOfAssetForToken) / nbrOfTokenForRewardPerhour\n        uint currentBalance = getBalance(_asset);\n        uint lastTransact = getLastTransact(_asset);\n        uint rewardPerHourFor1TKN = reserves[_asset].rewardPerHourFor1TKN;\n        if(lastTransact > 0 && currentBalance > 0) {\n            //We have to calculate the number of rewards by hour for the current balance\n            uint rewardCurrentBalance = (currentBalance * rewardPerHourFor1TKN)/(1 ether);\n            //We can now calculate the rewards gained\n            return ((block.timestamp - lastTransact) * rewardCurrentBalance) / 3600;\n        } else {\n            return 0;\n        }\n    }\n\n    //This function allow to check the global rewards for any account without modifying state variables\n    function calculateTotalRewardEarned() public view returns(uint) {\n        address tokenAddr;\n        uint totalRewards = rewardBalances[msg.sender];\n        for(uint i = 0; i < tokens.length; ++i){\n            tokenAddr = tokens[i];\n            if( getLastTransact(tokenAddr) > 0 ) {\n                totalRewards += calculateRewardEarned(tokenAddr);\n            }\n        }\n        return totalRewards;\n    }\n\n\n    function getBalance(address _asset) public view onlySupportedToken(_asset) returns(uint) {\n        return balances[msg.sender][_asset].amount;\n    }\n\n    // This should hep fot test to get the exact reward between two times\n    function getLastTransact(address _asset) public view onlySupportedToken(_asset) returns(uint) {\n        return balances[msg.sender][_asset].lastTransactTimeStamp;\n    }\n\n    //used for tests\n    function getReserve(address _asset) public view onlySupportedToken(_asset) returns(Reserve memory) {\n        return reserves[_asset];\n    }\n\n    //used for tests\n    function getRewardBalance() public view returns(uint) {\n        return rewardBalances[msg.sender];\n    }\n}\n",
  "sourcePath": "/mnt/d/ALYRA/Projet #4/Alyra_DeFi/truffle/contracts/Market.sol",
  "compiler": {
    "name": "solc",
    "version": "0.8.14+commit.80d49f37.Emscripten.clang"
  },
  "schemaVersion": "3.4.7",
  "updatedAt": "2022-08-03T13:43:31.623Z",
  "networkType": "ethereum",
  "devdoc": {
    "kind": "dev",
    "methods": {
      "owner()": {
        "details": "Returns the address of the current owner."
      },
      "renounceOwnership()": {
        "details": "Leaves the contract without owner. It will not be possible to call `onlyOwner` functions anymore. Can only be called by the current owner. NOTE: Renouncing ownership will leave the contract without an owner, thereby removing any functionality that is only available to the owner."
      },
      "transferOwnership(address)": {
        "details": "Transfers ownership of the contract to a new account (`newOwner`). Can only be called by the current owner."
      }
    },
    "version": 1
  },
  "userdoc": {
    "kind": "user",
    "methods": {},
    "version": 1
  }
}