{
  "contractName": "D4Atoken",
  "abi": [
    {
      "inputs": [],
      "stateMutability": "nonpayable",
      "type": "constructor"
    },
    {
      "anonymous": false,
      "inputs": [
        {
          "indexed": true,
          "internalType": "address",
          "name": "owner",
          "type": "address"
        },
        {
          "indexed": true,
          "internalType": "address",
          "name": "spender",
          "type": "address"
        },
        {
          "indexed": false,
          "internalType": "uint256",
          "name": "value",
          "type": "uint256"
        }
      ],
      "name": "Approval",
      "type": "event"
    },
    {
      "anonymous": false,
      "inputs": [
        {
          "indexed": true,
          "internalType": "address",
          "name": "previousOwner",
          "type": "address"
        },
        {
          "indexed": true,
          "internalType": "address",
          "name": "newOwner",
          "type": "address"
        }
      ],
      "name": "OwnershipTransferred",
      "type": "event"
    },
    {
      "anonymous": false,
      "inputs": [
        {
          "indexed": true,
          "internalType": "address",
          "name": "from",
          "type": "address"
        },
        {
          "indexed": true,
          "internalType": "address",
          "name": "to",
          "type": "address"
        },
        {
          "indexed": false,
          "internalType": "uint256",
          "name": "value",
          "type": "uint256"
        }
      ],
      "name": "Transfer",
      "type": "event"
    },
    {
      "inputs": [
        {
          "internalType": "address",
          "name": "owner",
          "type": "address"
        },
        {
          "internalType": "address",
          "name": "spender",
          "type": "address"
        }
      ],
      "name": "allowance",
      "outputs": [
        {
          "internalType": "uint256",
          "name": "",
          "type": "uint256"
        }
      ],
      "stateMutability": "view",
      "type": "function",
      "constant": true
    },
    {
      "inputs": [
        {
          "internalType": "address",
          "name": "spender",
          "type": "address"
        },
        {
          "internalType": "uint256",
          "name": "amount",
          "type": "uint256"
        }
      ],
      "name": "approve",
      "outputs": [
        {
          "internalType": "bool",
          "name": "",
          "type": "bool"
        }
      ],
      "stateMutability": "nonpayable",
      "type": "function"
    },
    {
      "inputs": [
        {
          "internalType": "address",
          "name": "account",
          "type": "address"
        }
      ],
      "name": "balanceOf",
      "outputs": [
        {
          "internalType": "uint256",
          "name": "",
          "type": "uint256"
        }
      ],
      "stateMutability": "view",
      "type": "function",
      "constant": true
    },
    {
      "inputs": [],
      "name": "decimals",
      "outputs": [
        {
          "internalType": "uint8",
          "name": "",
          "type": "uint8"
        }
      ],
      "stateMutability": "view",
      "type": "function",
      "constant": true
    },
    {
      "inputs": [
        {
          "internalType": "address",
          "name": "spender",
          "type": "address"
        },
        {
          "internalType": "uint256",
          "name": "subtractedValue",
          "type": "uint256"
        }
      ],
      "name": "decreaseAllowance",
      "outputs": [
        {
          "internalType": "bool",
          "name": "",
          "type": "bool"
        }
      ],
      "stateMutability": "nonpayable",
      "type": "function"
    },
    {
      "inputs": [
        {
          "internalType": "address",
          "name": "spender",
          "type": "address"
        },
        {
          "internalType": "uint256",
          "name": "addedValue",
          "type": "uint256"
        }
      ],
      "name": "increaseAllowance",
      "outputs": [
        {
          "internalType": "bool",
          "name": "",
          "type": "bool"
        }
      ],
      "stateMutability": "nonpayable",
      "type": "function"
    },
    {
      "inputs": [],
      "name": "name",
      "outputs": [
        {
          "internalType": "string",
          "name": "",
          "type": "string"
        }
      ],
      "stateMutability": "view",
      "type": "function",
      "constant": true
    },
    {
      "inputs": [],
      "name": "owner",
      "outputs": [
        {
          "internalType": "address",
          "name": "",
          "type": "address"
        }
      ],
      "stateMutability": "view",
      "type": "function",
      "constant": true
    },
    {
      "inputs": [],
      "name": "renounceOwnership",
      "outputs": [],
      "stateMutability": "nonpayable",
      "type": "function"
    },
    {
      "inputs": [],
      "name": "symbol",
      "outputs": [
        {
          "internalType": "string",
          "name": "",
          "type": "string"
        }
      ],
      "stateMutability": "view",
      "type": "function",
      "constant": true
    },
    {
      "inputs": [],
      "name": "totalSupply",
      "outputs": [
        {
          "internalType": "uint256",
          "name": "",
          "type": "uint256"
        }
      ],
      "stateMutability": "view",
      "type": "function",
      "constant": true
    },
    {
      "inputs": [
        {
          "internalType": "address",
          "name": "to",
          "type": "address"
        },
        {
          "internalType": "uint256",
          "name": "amount",
          "type": "uint256"
        }
      ],
      "name": "transfer",
      "outputs": [
        {
          "internalType": "bool",
          "name": "",
          "type": "bool"
        }
      ],
      "stateMutability": "nonpayable",
      "type": "function"
    },
    {
      "inputs": [
        {
          "internalType": "address",
          "name": "from",
          "type": "address"
        },
        {
          "internalType": "address",
          "name": "to",
          "type": "address"
        },
        {
          "internalType": "uint256",
          "name": "amount",
          "type": "uint256"
        }
      ],
      "name": "transferFrom",
      "outputs": [
        {
          "internalType": "bool",
          "name": "",
          "type": "bool"
        }
      ],
      "stateMutability": "nonpayable",
      "type": "function"
    },
    {
      "inputs": [
        {
          "internalType": "address",
          "name": "newOwner",
          "type": "address"
        }
      ],
      "name": "transferOwnership",
      "outputs": [],
      "stateMutability": "nonpayable",
      "type": "function"
    },
    {
      "inputs": [
        {
          "internalType": "address",
          "name": "recipient",
          "type": "address"
        },
        {
          "internalType": "uint256",
          "name": "amount",
          "type": "uint256"
        }
      ],
      "name": "mint",
      "outputs": [],
      "stateMutability": "nonpayable",
      "type": "function"
    },
    {
      "inputs": [
        {
          "internalType": "address",
          "name": "_admin",
          "type": "address"
        }
      ],
      "name": "addAdmin",
      "outputs": [],
      "stateMutability": "nonpayable",
      "type": "function"
    },
    {
      "inputs": [
        {
          "internalType": "address",
          "name": "_admin",
          "type": "address"
        }
      ],
      "name": "removeAdmin",
      "outputs": [],
      "stateMutability": "nonpayable",
      "type": "function"
    },
    {
      "inputs": [
        {
          "internalType": "address",
          "name": "_admin",
          "type": "address"
        }
      ],
      "name": "getAdmin",
      "outputs": [
        {
          "internalType": "bool",
          "name": "",
          "type": "bool"
        }
      ],
      "stateMutability": "view",
      "type": "function",
      "constant": true
    }
  ],
  "bytecode": "0x60806040523480156200001157600080fd5b506040518060400160405280601281526020017f4465466920466f7220416c6c20746f6b656e00000000000000000000000000008152506040518060400160405280600381526020017f4434410000000000000000000000000000000000000000000000000000000000815250816003908051906020019062000096929190620001a6565b508060049080519060200190620000af929190620001a6565b505050620000d2620000c6620000d860201b60201c565b620000e060201b60201c565b620002ba565b600033905090565b6000600560009054906101000a900473ffffffffffffffffffffffffffffffffffffffff16905081600560006101000a81548173ffffffffffffffffffffffffffffffffffffffff021916908373ffffffffffffffffffffffffffffffffffffffff1602179055508173ffffffffffffffffffffffffffffffffffffffff168173ffffffffffffffffffffffffffffffffffffffff167f8be0079c531659141344cd1fd0a4f28419497f9722a3daafe3b4186f6b6457e060405160405180910390a35050565b828054620001b49062000285565b90600052602060002090601f016020900481019282620001d8576000855562000224565b82601f10620001f357805160ff191683800117855562000224565b8280016001018555821562000224579182015b828111156200022357825182559160200191906001019062000206565b5b50905062000233919062000237565b5090565b5b808211156200025257600081600090555060010162000238565b5090565b7f4e487b7100000000000000000000000000000000000000000000000000000000600052602260045260246000fd5b600060028204905060018216806200029e57607f821691505b602082108103620002b457620002b362000256565b5b50919050565b611ab280620002ca6000396000f3fe608060405234801561001057600080fd5b50600436106101165760003560e01c806370480275116100a257806395d89b411161007157806395d89b41146102e1578063a457c2d7146102ff578063a9059cbb1461032f578063dd62ed3e1461035f578063f2fde38b1461038f57610116565b8063704802751461026d57806370a0823114610289578063715018a6146102b95780638da5cb5b146102c357610116565b806323b872dd116100e957806323b872dd146101a3578063313ce567146101d357806339509351146101f157806340c10f191461022157806364efb22b1461023d57610116565b806306fdde031461011b578063095ea7b3146101395780631785f53c1461016957806318160ddd14610185575b600080fd5b6101236103ab565b604051610130919061116d565b60405180910390f35b610153600480360381019061014e9190611228565b61043d565b6040516101609190611283565b60405180910390f35b610183600480360381019061017e919061129e565b610460565b005b61018d6104c3565b60405161019a91906112da565b60405180910390f35b6101bd60048036038101906101b891906112f5565b6104cd565b6040516101ca9190611283565b60405180910390f35b6101db6104fc565b6040516101e89190611364565b60405180910390f35b61020b60048036038101906102069190611228565b610505565b6040516102189190611283565b60405180910390f35b61023b60048036038101906102369190611228565b61053c565b005b6102576004803603810190610252919061129e565b6105d6565b6040516102649190611283565b60405180910390f35b6102876004803603810190610282919061129e565b61062c565b005b6102a3600480360381019061029e919061129e565b61068f565b6040516102b091906112da565b60405180910390f35b6102c16106d7565b005b6102cb6106eb565b6040516102d8919061138e565b60405180910390f35b6102e9610715565b6040516102f6919061116d565b60405180910390f35b61031960048036038101906103149190611228565b6107a7565b6040516103269190611283565b60405180910390f35b61034960048036038101906103449190611228565b61081e565b6040516103569190611283565b60405180910390f35b610379600480360381019061037491906113a9565b610841565b60405161038691906112da565b60405180910390f35b6103a960048036038101906103a4919061129e565b6108c8565b005b6060600380546103ba90611418565b80601f01602080910402602001604051908101604052809291908181526020018280546103e690611418565b80156104335780601f1061040857610100808354040283529160200191610433565b820191906000526020600020905b81548152906001019060200180831161041657829003601f168201915b5050505050905090565b60008061044861094b565b9050610455818585610953565b600191505092915050565b610468610b1c565b6000600660008373ffffffffffffffffffffffffffffffffffffffff1673ffffffffffffffffffffffffffffffffffffffff16815260200190815260200160002060006101000a81548160ff02191690831515021790555050565b6000600254905090565b6000806104d861094b565b90506104e5858285610b9a565b6104f0858585610c26565b60019150509392505050565b60006012905090565b60008061051061094b565b90506105318185856105228589610841565b61052c9190611478565b610953565b600191505092915050565b600660003373ffffffffffffffffffffffffffffffffffffffff1673ffffffffffffffffffffffffffffffffffffffff16815260200190815260200160002060009054906101000a900460ff166105c8576040517f08c379a00000000000000000000000000000000000000000000000000000000081526004016105bf9061151a565b60405180910390fd5b6105d28282610ea5565b5050565b6000600660008373ffffffffffffffffffffffffffffffffffffffff1673ffffffffffffffffffffffffffffffffffffffff16815260200190815260200160002060009054906101000a900460ff169050919050565b610634610b1c565b6001600660008373ffffffffffffffffffffffffffffffffffffffff1673ffffffffffffffffffffffffffffffffffffffff16815260200190815260200160002060006101000a81548160ff02191690831515021790555050565b60008060008373ffffffffffffffffffffffffffffffffffffffff1673ffffffffffffffffffffffffffffffffffffffff168152602001908152602001600020549050919050565b6106df610b1c565b6106e96000611004565b565b6000600560009054906101000a900473ffffffffffffffffffffffffffffffffffffffff16905090565b60606004805461072490611418565b80601f016020809104026020016040519081016040528092919081815260200182805461075090611418565b801561079d5780601f106107725761010080835404028352916020019161079d565b820191906000526020600020905b81548152906001019060200180831161078057829003601f168201915b5050505050905090565b6000806107b261094b565b905060006107c08286610841565b905083811015610805576040517f08c379a00000000000000000000000000000000000000000000000000000000081526004016107fc906115ac565b60405180910390fd5b6108128286868403610953565b60019250505092915050565b60008061082961094b565b9050610836818585610c26565b600191505092915050565b6000600160008473ffffffffffffffffffffffffffffffffffffffff1673ffffffffffffffffffffffffffffffffffffffff16815260200190815260200160002060008373ffffffffffffffffffffffffffffffffffffffff1673ffffffffffffffffffffffffffffffffffffffff16815260200190815260200160002054905092915050565b6108d0610b1c565b600073ffffffffffffffffffffffffffffffffffffffff168173ffffffffffffffffffffffffffffffffffffffff160361093f576040517f08c379a00000000000000000000000000000000000000000000000000000000081526004016109369061163e565b60405180910390fd5b61094881611004565b50565b600033905090565b600073ffffffffffffffffffffffffffffffffffffffff168373ffffffffffffffffffffffffffffffffffffffff16036109c2576040517f08c379a00000000000000000000000000000000000000000000000000000000081526004016109b9906116d0565b60405180910390fd5b600073ffffffffffffffffffffffffffffffffffffffff168273ffffffffffffffffffffffffffffffffffffffff1603610a31576040517f08c379a0000000000000000000000000000000000000000000000000000000008152600401610a2890611762565b60405180910390fd5b80600160008573ffffffffffffffffffffffffffffffffffffffff1673ffffffffffffffffffffffffffffffffffffffff16815260200190815260200160002060008473ffffffffffffffffffffffffffffffffffffffff1673ffffffffffffffffffffffffffffffffffffffff168152602001908152602001600020819055508173ffffffffffffffffffffffffffffffffffffffff168373ffffffffffffffffffffffffffffffffffffffff167f8c5be1e5ebec7d5bd14f71427d1e84f3dd0314c0f7b2291e5b200ac8c7c3b92583604051610b0f91906112da565b60405180910390a3505050565b610b2461094b565b73ffffffffffffffffffffffffffffffffffffffff16610b426106eb565b73ffffffffffffffffffffffffffffffffffffffff1614610b98576040517f08c379a0000000000000000000000000000000000000000000000000000000008152600401610b8f906117ce565b60405180910390fd5b565b6000610ba68484610841565b90507fffffffffffffffffffffffffffffffffffffffffffffffffffffffffffffffff8114610c205781811015610c12576040517f08c379a0000000000000000000000000000000000000000000000000000000008152600401610c099061183a565b60405180910390fd5b610c1f8484848403610953565b5b50505050565b600073ffffffffffffffffffffffffffffffffffffffff168373ffffffffffffffffffffffffffffffffffffffff1603610c95576040517f08c379a0000000000000000000000000000000000000000000000000000000008152600401610c8c906118cc565b60405180910390fd5b600073ffffffffffffffffffffffffffffffffffffffff168273ffffffffffffffffffffffffffffffffffffffff1603610d04576040517f08c379a0000000000000000000000000000000000000000000000000000000008152600401610cfb9061195e565b60405180910390fd5b610d0f8383836110ca565b60008060008573ffffffffffffffffffffffffffffffffffffffff1673ffffffffffffffffffffffffffffffffffffffff16815260200190815260200160002054905081811015610d95576040517f08c379a0000000000000000000000000000000000000000000000000000000008152600401610d8c906119f0565b60405180910390fd5b8181036000808673ffffffffffffffffffffffffffffffffffffffff1673ffffffffffffffffffffffffffffffffffffffff16815260200190815260200160002081905550816000808573ffffffffffffffffffffffffffffffffffffffff1673ffffffffffffffffffffffffffffffffffffffff1681526020019081526020016000206000828254610e289190611478565b925050819055508273ffffffffffffffffffffffffffffffffffffffff168473ffffffffffffffffffffffffffffffffffffffff167fddf252ad1be2c89b69c2b068fc378daa952ba7f163c4a11628f55a4df523b3ef84604051610e8c91906112da565b60405180910390a3610e9f8484846110cf565b50505050565b600073ffffffffffffffffffffffffffffffffffffffff168273ffffffffffffffffffffffffffffffffffffffff1603610f14576040517f08c379a0000000000000000000000000000000000000000000000000000000008152600401610f0b90611a5c565b60405180910390fd5b610f20600083836110ca565b8060026000828254610f329190611478565b92505081905550806000808473ffffffffffffffffffffffffffffffffffffffff1673ffffffffffffffffffffffffffffffffffffffff1681526020019081526020016000206000828254610f879190611478565b925050819055508173ffffffffffffffffffffffffffffffffffffffff16600073ffffffffffffffffffffffffffffffffffffffff167fddf252ad1be2c89b69c2b068fc378daa952ba7f163c4a11628f55a4df523b3ef83604051610fec91906112da565b60405180910390a3611000600083836110cf565b5050565b6000600560009054906101000a900473ffffffffffffffffffffffffffffffffffffffff16905081600560006101000a81548173ffffffffffffffffffffffffffffffffffffffff021916908373ffffffffffffffffffffffffffffffffffffffff1602179055508173ffffffffffffffffffffffffffffffffffffffff168173ffffffffffffffffffffffffffffffffffffffff167f8be0079c531659141344cd1fd0a4f28419497f9722a3daafe3b4186f6b6457e060405160405180910390a35050565b505050565b505050565b600081519050919050565b600082825260208201905092915050565b60005b8381101561110e5780820151818401526020810190506110f3565b8381111561111d576000848401525b50505050565b6000601f19601f8301169050919050565b600061113f826110d4565b61114981856110df565b93506111598185602086016110f0565b61116281611123565b840191505092915050565b600060208201905081810360008301526111878184611134565b905092915050565b600080fd5b600073ffffffffffffffffffffffffffffffffffffffff82169050919050565b60006111bf82611194565b9050919050565b6111cf816111b4565b81146111da57600080fd5b50565b6000813590506111ec816111c6565b92915050565b6000819050919050565b611205816111f2565b811461121057600080fd5b50565b600081359050611222816111fc565b92915050565b6000806040838503121561123f5761123e61118f565b5b600061124d858286016111dd565b925050602061125e85828601611213565b9150509250929050565b60008115159050919050565b61127d81611268565b82525050565b60006020820190506112986000830184611274565b92915050565b6000602082840312156112b4576112b361118f565b5b60006112c2848285016111dd565b91505092915050565b6112d4816111f2565b82525050565b60006020820190506112ef60008301846112cb565b92915050565b60008060006060848603121561130e5761130d61118f565b5b600061131c868287016111dd565b935050602061132d868287016111dd565b925050604061133e86828701611213565b9150509250925092565b600060ff82169050919050565b61135e81611348565b82525050565b60006020820190506113796000830184611355565b92915050565b611388816111b4565b82525050565b60006020820190506113a3600083018461137f565b92915050565b600080604083850312156113c0576113bf61118f565b5b60006113ce858286016111dd565b92505060206113df858286016111dd565b9150509250929050565b7f4e487b7100000000000000000000000000000000000000000000000000000000600052602260045260246000fd5b6000600282049050600182168061143057607f821691505b602082108103611443576114426113e9565b5b50919050565b7f4e487b7100000000000000000000000000000000000000000000000000000000600052601160045260246000fd5b6000611483826111f2565b915061148e836111f2565b9250827fffffffffffffffffffffffffffffffffffffffffffffffffffffffffffffffff038211156114c3576114c2611449565b5b828201905092915050565b7f596f7520617265206e6f742061646d696e000000000000000000000000000000600082015250565b60006115046011836110df565b915061150f826114ce565b602082019050919050565b60006020820190508181036000830152611533816114f7565b9050919050565b7f45524332303a2064656372656173656420616c6c6f77616e63652062656c6f7760008201527f207a65726f000000000000000000000000000000000000000000000000000000602082015250565b60006115966025836110df565b91506115a18261153a565b604082019050919050565b600060208201905081810360008301526115c581611589565b9050919050565b7f4f776e61626c653a206e6577206f776e657220697320746865207a65726f206160008201527f6464726573730000000000000000000000000000000000000000000000000000602082015250565b60006116286026836110df565b9150611633826115cc565b604082019050919050565b600060208201905081810360008301526116578161161b565b9050919050565b7f45524332303a20617070726f76652066726f6d20746865207a65726f2061646460008201527f7265737300000000000000000000000000000000000000000000000000000000602082015250565b60006116ba6024836110df565b91506116c58261165e565b604082019050919050565b600060208201905081810360008301526116e9816116ad565b9050919050565b7f45524332303a20617070726f766520746f20746865207a65726f20616464726560008201527f7373000000000000000000000000000000000000000000000000000000000000602082015250565b600061174c6022836110df565b9150611757826116f0565b604082019050919050565b6000602082019050818103600083015261177b8161173f565b9050919050565b7f4f776e61626c653a2063616c6c6572206973206e6f7420746865206f776e6572600082015250565b60006117b86020836110df565b91506117c382611782565b602082019050919050565b600060208201905081810360008301526117e7816117ab565b9050919050565b7f45524332303a20696e73756666696369656e7420616c6c6f77616e6365000000600082015250565b6000611824601d836110df565b915061182f826117ee565b602082019050919050565b6000602082019050818103600083015261185381611817565b9050919050565b7f45524332303a207472616e736665722066726f6d20746865207a65726f20616460008201527f6472657373000000000000000000000000000000000000000000000000000000602082015250565b60006118b66025836110df565b91506118c18261185a565b604082019050919050565b600060208201905081810360008301526118e5816118a9565b9050919050565b7f45524332303a207472616e7366657220746f20746865207a65726f206164647260008201527f6573730000000000000000000000000000000000000000000000000000000000602082015250565b60006119486023836110df565b9150611953826118ec565b604082019050919050565b600060208201905081810360008301526119778161193b565b9050919050565b7f45524332303a207472616e7366657220616d6f756e742065786365656473206260008201527f616c616e63650000000000000000000000000000000000000000000000000000602082015250565b60006119da6026836110df565b91506119e58261197e565b604082019050919050565b60006020820190508181036000830152611a09816119cd565b9050919050565b7f45524332303a206d696e7420746f20746865207a65726f206164647265737300600082015250565b6000611a46601f836110df565b9150611a5182611a10565b602082019050919050565b60006020820190508181036000830152611a7581611a39565b905091905056fea26469706673582212202b9856b59014db35a9e9264c449788845804394072a7d0f9f053d66865f7e8a264736f6c634300080e0033",
  "immutableReferences": {},
  "source": "// SPDX-License-Identifier: MIT\npragma solidity 0.8.14;\n\nimport \"../node_modules/@openzeppelin/contracts/token/ERC20/ERC20.sol\";\nimport \"../node_modules/@openzeppelin/contracts/access/Ownable.sol\";\n\n\n/// @title ERC20 D4A.\n/// @notice ERC20 with permissions.\n/// @dev Must be used with Market.sol as a reward token.\ncontract D4Atoken is ERC20, Ownable {\n    mapping(address => bool) admins;\n\n    constructor() ERC20(\"DeFi For All token\", \"D4A\") {}\n\n    /// @notice Mint X D4A tokens to a recipient\n    /// @dev Owner must have added an admin before\n    /// @param recipient The recipient that will receive X D4A.\n    /// @param amount The amount of D4A to be minted.\n    function mint(address recipient, uint256 amount) external {\n        require(admins[msg.sender], \"You are not admin\");\n        _mint(recipient, amount);\n    }\n\n    /// @notice Gives admin permissions\n    /// @param _admin The address that will receive permissions\n    function addAdmin(address _admin) external onlyOwner {\n        admins[_admin] = true;\n    }\n\n    /// @notice Removes admin permissions\n    /// @param _admin The address that will loose permissions\n    function removeAdmin(address _admin) external onlyOwner {\n        admins[_admin] = false;\n    }\n\n    /// @notice Get wether or not someone is admin.\n    /// @dev Used for Unit tests\n    /// @param _admin The address to check.\n    /// @return true if admin, false if not.\n    function getAdmin(address _admin) external view returns (bool) {\n        return admins[_admin];\n    }\n}\n",
  "sourcePath": "/mnt/c/Work/Alyra/Ubuntu/Projets/Alyra_DeFi/truffle/contracts/D4Atoken.sol",
  "compiler": {
    "name": "solc",
    "version": "0.8.14+commit.80d49f37.Emscripten.clang"
  },
  "schemaVersion": "3.4.8",
  "updatedAt": "2022-08-07T22:37:08.390Z",
  "networkType": "ethereum",
  "devdoc": {
    "details": "Must be used with Market.sol as a reward token.",
    "kind": "dev",
    "methods": {
      "addAdmin(address)": {
        "params": {
          "_admin": "The address that will receive permissions"
        }
      },
      "allowance(address,address)": {
        "details": "See {IERC20-allowance}."
      },
      "approve(address,uint256)": {
        "details": "See {IERC20-approve}. NOTE: If `amount` is the maximum `uint256`, the allowance is not updated on `transferFrom`. This is semantically equivalent to an infinite approval. Requirements: - `spender` cannot be the zero address."
      },
      "balanceOf(address)": {
        "details": "See {IERC20-balanceOf}."
      },
      "decimals()": {
        "details": "Returns the number of decimals used to get its user representation. For example, if `decimals` equals `2`, a balance of `505` tokens should be displayed to a user as `5.05` (`505 / 10 ** 2`). Tokens usually opt for a value of 18, imitating the relationship between Ether and Wei. This is the value {ERC20} uses, unless this function is overridden; NOTE: This information is only used for _display_ purposes: it in no way affects any of the arithmetic of the contract, including {IERC20-balanceOf} and {IERC20-transfer}."
      },
      "decreaseAllowance(address,uint256)": {
        "details": "Atomically decreases the allowance granted to `spender` by the caller. This is an alternative to {approve} that can be used as a mitigation for problems described in {IERC20-approve}. Emits an {Approval} event indicating the updated allowance. Requirements: - `spender` cannot be the zero address. - `spender` must have allowance for the caller of at least `subtractedValue`."
      },
      "getAdmin(address)": {
        "details": "Used for Unit tests",
        "params": {
          "_admin": "The address to check."
        },
        "returns": {
          "_0": "true if admin, false if not."
        }
      },
      "increaseAllowance(address,uint256)": {
        "details": "Atomically increases the allowance granted to `spender` by the caller. This is an alternative to {approve} that can be used as a mitigation for problems described in {IERC20-approve}. Emits an {Approval} event indicating the updated allowance. Requirements: - `spender` cannot be the zero address."
      },
      "mint(address,uint256)": {
        "details": "Owner must have added an admin before",
        "params": {
          "amount": "The amount of D4A to be minted.",
          "recipient": "The recipient that will receive X D4A."
        }
      },
      "name()": {
        "details": "Returns the name of the token."
      },
      "owner()": {
        "details": "Returns the address of the current owner."
      },
      "removeAdmin(address)": {
        "params": {
          "_admin": "The address that will loose permissions"
        }
      },
      "renounceOwnership()": {
        "details": "Leaves the contract without owner. It will not be possible to call `onlyOwner` functions anymore. Can only be called by the current owner. NOTE: Renouncing ownership will leave the contract without an owner, thereby removing any functionality that is only available to the owner."
      },
      "symbol()": {
        "details": "Returns the symbol of the token, usually a shorter version of the name."
      },
      "totalSupply()": {
        "details": "See {IERC20-totalSupply}."
      },
      "transfer(address,uint256)": {
        "details": "See {IERC20-transfer}. Requirements: - `to` cannot be the zero address. - the caller must have a balance of at least `amount`."
      },
      "transferFrom(address,address,uint256)": {
        "details": "See {IERC20-transferFrom}. Emits an {Approval} event indicating the updated allowance. This is not required by the EIP. See the note at the beginning of {ERC20}. NOTE: Does not update the allowance if the current allowance is the maximum `uint256`. Requirements: - `from` and `to` cannot be the zero address. - `from` must have a balance of at least `amount`. - the caller must have allowance for ``from``'s tokens of at least `amount`."
      },
      "transferOwnership(address)": {
        "details": "Transfers ownership of the contract to a new account (`newOwner`). Can only be called by the current owner."
      }
    },
    "title": "ERC20 D4A.",
    "version": 1
  },
  "userdoc": {
    "kind": "user",
    "methods": {
      "addAdmin(address)": {
        "notice": "Gives admin permissions"
      },
      "getAdmin(address)": {
        "notice": "Get wether or not someone is admin."
      },
      "mint(address,uint256)": {
        "notice": "Mint X D4A tokens to a recipient"
      },
      "removeAdmin(address)": {
        "notice": "Removes admin permissions"
      }
    },
    "notice": "ERC20 with permissions.",
    "version": 1
  }
}