{
  "contractName": "Market",
  "abi": [
    {
      "inputs": [
        {
          "internalType": "contract D4Atoken",
          "name": "_rewardToken",
          "type": "address"
        }
      ],
      "stateMutability": "nonpayable",
      "type": "constructor"
    },
    {
      "anonymous": false,
      "inputs": [
        {
          "indexed": false,
          "internalType": "uint256",
          "name": "amount",
          "type": "uint256"
        },
        {
          "indexed": false,
          "internalType": "address",
          "name": "user",
          "type": "address"
        }
      ],
      "name": "Claimed",
      "type": "event"
    },
    {
      "anonymous": false,
      "inputs": [
        {
          "indexed": false,
          "internalType": "uint256",
          "name": "amount",
          "type": "uint256"
        },
        {
          "indexed": false,
          "internalType": "address",
          "name": "asset",
          "type": "address"
        },
        {
          "indexed": false,
          "internalType": "address",
          "name": "user",
          "type": "address"
        }
      ],
      "name": "Deposited",
      "type": "event"
    },
    {
      "anonymous": false,
      "inputs": [
        {
          "indexed": true,
          "internalType": "address",
          "name": "previousOwner",
          "type": "address"
        },
        {
          "indexed": true,
          "internalType": "address",
          "name": "newOwner",
          "type": "address"
        }
      ],
      "name": "OwnershipTransferred",
      "type": "event"
    },
    {
      "anonymous": false,
      "inputs": [
        {
          "indexed": false,
          "internalType": "uint256",
          "name": "amount",
          "type": "uint256"
        },
        {
          "indexed": false,
          "internalType": "address",
          "name": "user",
          "type": "address"
        }
      ],
      "name": "RewardUpdated",
      "type": "event"
    },
    {
      "anonymous": false,
      "inputs": [
        {
          "indexed": false,
          "internalType": "address",
          "name": "asset",
          "type": "address"
        }
      ],
      "name": "TokenAdded",
      "type": "event"
    },
    {
      "anonymous": false,
      "inputs": [
        {
          "indexed": false,
          "internalType": "uint256",
          "name": "amount",
          "type": "uint256"
        },
        {
          "indexed": false,
          "internalType": "address",
          "name": "asset",
          "type": "address"
        },
        {
          "indexed": false,
          "internalType": "address",
          "name": "user",
          "type": "address"
        }
      ],
      "name": "Withdrawn",
      "type": "event"
    },
    {
      "inputs": [],
      "name": "owner",
      "outputs": [
        {
          "internalType": "address",
          "name": "",
          "type": "address"
        }
      ],
      "stateMutability": "view",
      "type": "function",
      "constant": true
    },
    {
      "inputs": [],
      "name": "renounceOwnership",
      "outputs": [],
      "stateMutability": "nonpayable",
      "type": "function"
    },
    {
      "inputs": [],
      "name": "rewardToken",
      "outputs": [
        {
          "internalType": "contract D4Atoken",
          "name": "",
          "type": "address"
        }
      ],
      "stateMutability": "view",
      "type": "function",
      "constant": true
    },
    {
      "inputs": [
        {
          "internalType": "uint256",
          "name": "",
          "type": "uint256"
        }
      ],
      "name": "tokens",
      "outputs": [
        {
          "internalType": "address",
          "name": "",
          "type": "address"
        }
      ],
      "stateMutability": "view",
      "type": "function",
      "constant": true
    },
    {
      "inputs": [
        {
          "internalType": "address",
          "name": "newOwner",
          "type": "address"
        }
      ],
      "name": "transferOwnership",
      "outputs": [],
      "stateMutability": "nonpayable",
      "type": "function"
    },
    {
      "inputs": [
        {
          "internalType": "address",
          "name": "_asset",
          "type": "address"
        },
        {
          "internalType": "uint256",
          "name": "_rewardPerHourFor1TKN",
          "type": "uint256"
        }
      ],
      "name": "addToken",
      "outputs": [],
      "stateMutability": "nonpayable",
      "type": "function"
    },
    {
      "inputs": [
        {
          "internalType": "uint256",
          "name": "_amount",
          "type": "uint256"
        },
        {
          "internalType": "address",
          "name": "_asset",
          "type": "address"
        }
      ],
      "name": "deposit",
      "outputs": [],
      "stateMutability": "nonpayable",
      "type": "function"
    },
    {
      "inputs": [
        {
          "internalType": "uint256",
          "name": "_amount",
          "type": "uint256"
        },
        {
          "internalType": "address",
          "name": "_asset",
          "type": "address"
        }
      ],
      "name": "withdraw",
      "outputs": [],
      "stateMutability": "nonpayable",
      "type": "function"
    },
    {
      "inputs": [],
      "name": "claim",
      "outputs": [],
      "stateMutability": "nonpayable",
      "type": "function"
    },
    {
      "inputs": [],
      "name": "calculateTotalRewardEarned",
      "outputs": [
        {
          "internalType": "uint256",
          "name": "",
          "type": "uint256"
        }
      ],
      "stateMutability": "view",
      "type": "function",
      "constant": true
    },
    {
      "inputs": [
        {
          "internalType": "address",
          "name": "_asset",
          "type": "address"
        }
      ],
      "name": "getBalance",
      "outputs": [
        {
          "internalType": "uint256",
          "name": "",
          "type": "uint256"
        }
      ],
      "stateMutability": "view",
      "type": "function",
      "constant": true
    },
    {
      "inputs": [
        {
          "internalType": "address",
          "name": "_asset",
          "type": "address"
        }
      ],
      "name": "getLastTransact",
      "outputs": [
        {
          "internalType": "uint256",
          "name": "",
          "type": "uint256"
        }
      ],
      "stateMutability": "view",
      "type": "function",
      "constant": true
    },
    {
      "inputs": [
        {
          "internalType": "address",
          "name": "_asset",
          "type": "address"
        }
      ],
      "name": "getReserve",
      "outputs": [
        {
          "components": [
            {
              "internalType": "contract ERC20",
              "name": "token",
              "type": "address"
            },
            {
              "internalType": "uint256",
              "name": "rewardPerHourFor1TKN",
              "type": "uint256"
            },
            {
              "internalType": "bool",
              "name": "isSupported",
              "type": "bool"
            }
          ],
          "internalType": "struct Market.Reserve",
          "name": "",
          "type": "tuple"
        }
      ],
      "stateMutability": "view",
      "type": "function",
      "constant": true
    },
    {
      "inputs": [],
      "name": "getRewardBalance",
      "outputs": [
        {
          "internalType": "uint256",
          "name": "",
          "type": "uint256"
        }
      ],
      "stateMutability": "view",
      "type": "function",
      "constant": true
    }
  ],
  "bytecode": "0x60806040523480156200001157600080fd5b506040516200236c3803806200236c8339818101604052810190620000379190620001e9565b620000576200004b6200009f60201b60201c565b620000a760201b60201c565b80600560006101000a81548173ffffffffffffffffffffffffffffffffffffffff021916908373ffffffffffffffffffffffffffffffffffffffff160217905550506200021b565b600033905090565b60008060009054906101000a900473ffffffffffffffffffffffffffffffffffffffff169050816000806101000a81548173ffffffffffffffffffffffffffffffffffffffff021916908373ffffffffffffffffffffffffffffffffffffffff1602179055508173ffffffffffffffffffffffffffffffffffffffff168173ffffffffffffffffffffffffffffffffffffffff167f8be0079c531659141344cd1fd0a4f28419497f9722a3daafe3b4186f6b6457e060405160405180910390a35050565b600080fd5b600073ffffffffffffffffffffffffffffffffffffffff82169050919050565b60006200019d8262000170565b9050919050565b6000620001b18262000190565b9050919050565b620001c381620001a4565b8114620001cf57600080fd5b50565b600081519050620001e381620001b8565b92915050565b6000602082840312156200020257620002016200016b565b5b60006200021284828501620001d2565b91505092915050565b612141806200022b6000396000f3fe608060405234801561001057600080fd5b50600436106100e95760003560e01c806393e4f7b21161008c578063f2fde38b11610066578063f2fde38b14610222578063f34f04a61461023e578063f7c618c11461025c578063f8b2cb4f1461027a576100e9565b806393e4f7b2146101a6578063af81c5b9146101d6578063c9a396e9146101f2576100e9565b80635e42b455116100c85780635e42b455146101445780636e553f6514610162578063715018a61461017e5780638da5cb5b14610188576100e9565b8062f714ce146100ee5780634e71d92d1461010a5780634f64b2be14610114575b600080fd5b610108600480360381019061010391906118f9565b6102aa565b005b610112610665565b005b61012e60048036038101906101299190611939565b61093f565b60405161013b9190611975565b60405180910390f35b61014c61097e565b604051610159919061199f565b60405180910390f35b61017c600480360381019061017791906118f9565b6109c5565b005b610186610c9b565b005b610190610caf565b60405161019d9190611975565b60405180910390f35b6101c060048036038101906101bb91906119ba565b610cd8565b6040516101cd919061199f565b60405180910390f35b6101f060048036038101906101eb91906119e7565b610df2565b005b61020c600480360381019061020791906119ba565b611015565b6040516102199190611af2565b60405180910390f35b61023c600480360381019061023791906119ba565b61117a565b005b6102466111fd565b604051610253919061199f565b60405180910390f35b6102646112d7565b6040516102719190611b2e565b60405180910390f35b610294600480360381019061028f91906119ba565b6112fd565b6040516102a1919061199f565b60405180910390f35b80600160008273ffffffffffffffffffffffffffffffffffffffff1673ffffffffffffffffffffffffffffffffffffffff16815260200190815260200160002060020160009054906101000a900460ff1661033a576040517f08c379a000000000000000000000000000000000000000000000000000000000815260040161033190611ba6565b60405180910390fd5b82610344836112fd565b1015610385576040517f08c379a000000000000000000000000000000000000000000000000000000000815260040161037c90611c12565b60405180910390fd5b600160008373ffffffffffffffffffffffffffffffffffffffff1673ffffffffffffffffffffffffffffffffffffffff16815260200190815260200160002060000160009054906101000a900473ffffffffffffffffffffffffffffffffffffffff1673ffffffffffffffffffffffffffffffffffffffff1663a9059cbb33856040518363ffffffff1660e01b8152600401610422929190611c32565b6020604051808303816000875af1158015610441573d6000803e3d6000fd5b505050506040513d601f19601f820116820180604052508101906104659190611c87565b5061046f82611417565b82600260003373ffffffffffffffffffffffffffffffffffffffff1673ffffffffffffffffffffffffffffffffffffffff16815260200190815260200160002060008473ffffffffffffffffffffffffffffffffffffffff1673ffffffffffffffffffffffffffffffffffffffff16815260200190815260200160002060000160008282546104fe9190611ce3565b925050819055506000610510836112fd565b111561059f5742600260003373ffffffffffffffffffffffffffffffffffffffff1673ffffffffffffffffffffffffffffffffffffffff16815260200190815260200160002060008473ffffffffffffffffffffffffffffffffffffffff1673ffffffffffffffffffffffffffffffffffffffff16815260200190815260200160002060010181905550610625565b6000600260003373ffffffffffffffffffffffffffffffffffffffff1673ffffffffffffffffffffffffffffffffffffffff16815260200190815260200160002060008473ffffffffffffffffffffffffffffffffffffffff1673ffffffffffffffffffffffffffffffffffffffff168152602001908152602001600020600101819055505b7fb524bace85e4ce0f8da306e32f39263c5724780ca00b7551c051c8e3dc36adaf83833360405161065893929190611d17565b60405180910390a1505050565b60008060005b600480549050811015610769576004818154811061068c5761068b611d4e565b5b9060005260206000200160009054906101000a900473ffffffffffffffffffffffffffffffffffffffff16925060006106c484610cd8565b1115610758576106d383611417565b42600260003373ffffffffffffffffffffffffffffffffffffffff1673ffffffffffffffffffffffffffffffffffffffff16815260200190815260200160002060008573ffffffffffffffffffffffffffffffffffffffff1673ffffffffffffffffffffffffffffffffffffffff168152602001908152602001600020600101819055505b8061076290611d7d565b905061066b565b506000600360003373ffffffffffffffffffffffffffffffffffffffff1673ffffffffffffffffffffffffffffffffffffffff16815260200190815260200160002054116107ec576040517f08c379a00000000000000000000000000000000000000000000000000000000081526004016107e390611e11565b60405180910390fd5b600360003373ffffffffffffffffffffffffffffffffffffffff1673ffffffffffffffffffffffffffffffffffffffff1681526020019081526020016000205490506000600360003373ffffffffffffffffffffffffffffffffffffffff1673ffffffffffffffffffffffffffffffffffffffff16815260200190815260200160002081905550600560009054906101000a900473ffffffffffffffffffffffffffffffffffffffff1673ffffffffffffffffffffffffffffffffffffffff166340c10f1933836040518363ffffffff1660e01b81526004016108d0929190611c32565b600060405180830381600087803b1580156108ea57600080fd5b505af11580156108fe573d6000803e3d6000fd5b505050507f6aa3eac93d079e5e100b1029be716caa33586c96aa4baac390669fb5c2a212128133604051610933929190611e31565b60405180910390a15050565b6004818154811061094f57600080fd5b906000526020600020016000915054906101000a900473ffffffffffffffffffffffffffffffffffffffff1681565b6000600360003373ffffffffffffffffffffffffffffffffffffffff1673ffffffffffffffffffffffffffffffffffffffff16815260200190815260200160002054905090565b80600160008273ffffffffffffffffffffffffffffffffffffffff1673ffffffffffffffffffffffffffffffffffffffff16815260200190815260200160002060020160009054906101000a900460ff16610a55576040517f08c379a0000000000000000000000000000000000000000000000000000000008152600401610a4c90611ba6565b60405180910390fd5b600160008373ffffffffffffffffffffffffffffffffffffffff1673ffffffffffffffffffffffffffffffffffffffff16815260200190815260200160002060000160009054906101000a900473ffffffffffffffffffffffffffffffffffffffff1673ffffffffffffffffffffffffffffffffffffffff166323b872dd3330866040518463ffffffff1660e01b8152600401610af493929190611e5a565b6020604051808303816000875af1158015610b13573d6000803e3d6000fd5b505050506040513d601f19601f82011682018060405250810190610b379190611c87565b50610b4182611417565b82600260003373ffffffffffffffffffffffffffffffffffffffff1673ffffffffffffffffffffffffffffffffffffffff16815260200190815260200160002060008473ffffffffffffffffffffffffffffffffffffffff1673ffffffffffffffffffffffffffffffffffffffff1681526020019081526020016000206000016000828254610bd09190611e91565b9250508190555042600260003373ffffffffffffffffffffffffffffffffffffffff1673ffffffffffffffffffffffffffffffffffffffff16815260200190815260200160002060008473ffffffffffffffffffffffffffffffffffffffff1673ffffffffffffffffffffffffffffffffffffffff168152602001908152602001600020600101819055507f7896c404bfb9173f4c61824c5e10e743eb885c3fe1c1727ed55ac3a51a350874838333604051610c8e93929190611d17565b60405180910390a1505050565b610ca3611581565b610cad60006115ff565b565b60008060009054906101000a900473ffffffffffffffffffffffffffffffffffffffff16905090565b600081600160008273ffffffffffffffffffffffffffffffffffffffff1673ffffffffffffffffffffffffffffffffffffffff16815260200190815260200160002060020160009054906101000a900460ff16610d6a576040517f08c379a0000000000000000000000000000000000000000000000000000000008152600401610d6190611ba6565b60405180910390fd5b600260003373ffffffffffffffffffffffffffffffffffffffff1673ffffffffffffffffffffffffffffffffffffffff16815260200190815260200160002060008473ffffffffffffffffffffffffffffffffffffffff1673ffffffffffffffffffffffffffffffffffffffff16815260200190815260200160002060010154915050919050565b610dfa611581565b60001515600160008473ffffffffffffffffffffffffffffffffffffffff1673ffffffffffffffffffffffffffffffffffffffff16815260200190815260200160002060020160009054906101000a900460ff16151514610e90576040517f08c379a0000000000000000000000000000000000000000000000000000000008152600401610e8790611f33565b60405180910390fd5b60405180606001604052808373ffffffffffffffffffffffffffffffffffffffff16815260200182815260200160011515815250600160008473ffffffffffffffffffffffffffffffffffffffff1673ffffffffffffffffffffffffffffffffffffffff16815260200190815260200160002060008201518160000160006101000a81548173ffffffffffffffffffffffffffffffffffffffff021916908373ffffffffffffffffffffffffffffffffffffffff1602179055506020820151816001015560408201518160020160006101000a81548160ff0219169083151502179055509050506004829080600181540180825580915050600190039060005260206000200160009091909190916101000a81548173ffffffffffffffffffffffffffffffffffffffff021916908373ffffffffffffffffffffffffffffffffffffffff1602179055507f784c8f4dbf0ffedd6e72c76501c545a70f8b203b30a26ce542bf92ba87c248a4826040516110099190611975565b60405180910390a15050565b61101d611827565b81600160008273ffffffffffffffffffffffffffffffffffffffff1673ffffffffffffffffffffffffffffffffffffffff16815260200190815260200160002060020160009054906101000a900460ff166110ad576040517f08c379a00000000000000000000000000000000000000000000000000000000081526004016110a490611ba6565b60405180910390fd5b600160008473ffffffffffffffffffffffffffffffffffffffff1673ffffffffffffffffffffffffffffffffffffffff1681526020019081526020016000206040518060600160405290816000820160009054906101000a900473ffffffffffffffffffffffffffffffffffffffff1673ffffffffffffffffffffffffffffffffffffffff1673ffffffffffffffffffffffffffffffffffffffff168152602001600182015481526020016002820160009054906101000a900460ff161515151581525050915050919050565b611182611581565b600073ffffffffffffffffffffffffffffffffffffffff168173ffffffffffffffffffffffffffffffffffffffff16036111f1576040517f08c379a00000000000000000000000000000000000000000000000000000000081526004016111e890611fc5565b60405180910390fd5b6111fa816115ff565b50565b6000806000600360003373ffffffffffffffffffffffffffffffffffffffff1673ffffffffffffffffffffffffffffffffffffffff16815260200190815260200160002054905060005b6004805490508110156112ce576004818154811061126857611267611d4e565b5b9060005260206000200160009054906101000a900473ffffffffffffffffffffffffffffffffffffffff16925060006112a084610cd8565b11156112bd576112af836116c3565b826112ba9190611e91565b91505b806112c790611d7d565b9050611247565b50809250505090565b600560009054906101000a900473ffffffffffffffffffffffffffffffffffffffff1681565b600081600160008273ffffffffffffffffffffffffffffffffffffffff1673ffffffffffffffffffffffffffffffffffffffff16815260200190815260200160002060020160009054906101000a900460ff1661138f576040517f08c379a000000000000000000000000000000000000000000000000000000000815260040161138690611ba6565b60405180910390fd5b600260003373ffffffffffffffffffffffffffffffffffffffff1673ffffffffffffffffffffffffffffffffffffffff16815260200190815260200160002060008473ffffffffffffffffffffffffffffffffffffffff1673ffffffffffffffffffffffffffffffffffffffff16815260200190815260200160002060000154915050919050565b80600160008273ffffffffffffffffffffffffffffffffffffffff1673ffffffffffffffffffffffffffffffffffffffff16815260200190815260200160002060020160009054906101000a900460ff166114a7576040517f08c379a000000000000000000000000000000000000000000000000000000000815260040161149e90611ba6565b60405180910390fd5b6114b0826116c3565b600360003373ffffffffffffffffffffffffffffffffffffffff1673ffffffffffffffffffffffffffffffffffffffff16815260200190815260200160002060008282546114fe9190611e91565b925050819055507fa7db2208fbbce7742b3103d7205e99d91f1c9a8243df48faf7651d7bf88e7b82600360003373ffffffffffffffffffffffffffffffffffffffff1673ffffffffffffffffffffffffffffffffffffffff1681526020019081526020016000205433604051611575929190611e31565b60405180910390a15050565b61158961181f565b73ffffffffffffffffffffffffffffffffffffffff166115a7610caf565b73ffffffffffffffffffffffffffffffffffffffff16146115fd576040517f08c379a00000000000000000000000000000000000000000000000000000000081526004016115f490612031565b60405180910390fd5b565b60008060009054906101000a900473ffffffffffffffffffffffffffffffffffffffff169050816000806101000a81548173ffffffffffffffffffffffffffffffffffffffff021916908373ffffffffffffffffffffffffffffffffffffffff1602179055508173ffffffffffffffffffffffffffffffffffffffff168173ffffffffffffffffffffffffffffffffffffffff167f8be0079c531659141344cd1fd0a4f28419497f9722a3daafe3b4186f6b6457e060405160405180910390a35050565b600081600160008273ffffffffffffffffffffffffffffffffffffffff1673ffffffffffffffffffffffffffffffffffffffff16815260200190815260200160002060020160009054906101000a900460ff16611755576040517f08c379a000000000000000000000000000000000000000000000000000000000815260040161174c90611ba6565b60405180910390fd5b6000611760846112fd565b9050600061176d85610cd8565b90506000600160008773ffffffffffffffffffffffffffffffffffffffff1673ffffffffffffffffffffffffffffffffffffffff1681526020019081526020016000206001015490506000821115611811576000670de0b6b3a764000082856117d69190612051565b6117e091906120da565b9050610e108184426117f29190611ce3565b6117fc9190612051565b61180691906120da565b955050505050611819565b600094505050505b50919050565b600033905090565b6040518060600160405280600073ffffffffffffffffffffffffffffffffffffffff168152602001600081526020016000151581525090565b600080fd5b6000819050919050565b61187881611865565b811461188357600080fd5b50565b6000813590506118958161186f565b92915050565b600073ffffffffffffffffffffffffffffffffffffffff82169050919050565b60006118c68261189b565b9050919050565b6118d6816118bb565b81146118e157600080fd5b50565b6000813590506118f3816118cd565b92915050565b600080604083850312156119105761190f611860565b5b600061191e85828601611886565b925050602061192f858286016118e4565b9150509250929050565b60006020828403121561194f5761194e611860565b5b600061195d84828501611886565b91505092915050565b61196f816118bb565b82525050565b600060208201905061198a6000830184611966565b92915050565b61199981611865565b82525050565b60006020820190506119b46000830184611990565b92915050565b6000602082840312156119d0576119cf611860565b5b60006119de848285016118e4565b91505092915050565b600080604083850312156119fe576119fd611860565b5b6000611a0c858286016118e4565b9250506020611a1d85828601611886565b9150509250929050565b6000819050919050565b6000611a4c611a47611a428461189b565b611a27565b61189b565b9050919050565b6000611a5e82611a31565b9050919050565b6000611a7082611a53565b9050919050565b611a8081611a65565b82525050565b611a8f81611865565b82525050565b60008115159050919050565b611aaa81611a95565b82525050565b606082016000820151611ac66000850182611a77565b506020820151611ad96020850182611a86565b506040820151611aec6040850182611aa1565b50505050565b6000606082019050611b076000830184611ab0565b92915050565b6000611b1882611a53565b9050919050565b611b2881611b0d565b82525050565b6000602082019050611b436000830184611b1f565b92915050565b600082825260208201905092915050565b7f546f6b656e206e6f7420737570706f7274656400000000000000000000000000600082015250565b6000611b90601383611b49565b9150611b9b82611b5a565b602082019050919050565b60006020820190508181036000830152611bbf81611b83565b9050919050565b7f5769746864726177696e6720746f6f206d756368000000000000000000000000600082015250565b6000611bfc601483611b49565b9150611c0782611bc6565b602082019050919050565b60006020820190508181036000830152611c2b81611bef565b9050919050565b6000604082019050611c476000830185611966565b611c546020830184611990565b9392505050565b611c6481611a95565b8114611c6f57600080fd5b50565b600081519050611c8181611c5b565b92915050565b600060208284031215611c9d57611c9c611860565b5b6000611cab84828501611c72565b91505092915050565b7f4e487b7100000000000000000000000000000000000000000000000000000000600052601160045260246000fd5b6000611cee82611865565b9150611cf983611865565b925082821015611d0c57611d0b611cb4565b5b828203905092915050565b6000606082019050611d2c6000830186611990565b611d396020830185611966565b611d466040830184611966565b949350505050565b7f4e487b7100000000000000000000000000000000000000000000000000000000600052603260045260246000fd5b6000611d8882611865565b91507fffffffffffffffffffffffffffffffffffffffffffffffffffffffffffffffff8203611dba57611db9611cb4565b5b600182019050919050565b7f4e6f207265776172647320746f206265206d696e746564000000000000000000600082015250565b6000611dfb601783611b49565b9150611e0682611dc5565b602082019050919050565b60006020820190508181036000830152611e2a81611dee565b9050919050565b6000604082019050611e466000830185611990565b611e536020830184611966565b9392505050565b6000606082019050611e6f6000830186611966565b611e7c6020830185611966565b611e896040830184611990565b949350505050565b6000611e9c82611865565b9150611ea783611865565b9250827fffffffffffffffffffffffffffffffffffffffffffffffffffffffffffffffff03821115611edc57611edb611cb4565b5b828201905092915050565b7f546f6b656e20616c726561647920737570706f72746564000000000000000000600082015250565b6000611f1d601783611b49565b9150611f2882611ee7565b602082019050919050565b60006020820190508181036000830152611f4c81611f10565b9050919050565b7f4f776e61626c653a206e6577206f776e657220697320746865207a65726f206160008201527f6464726573730000000000000000000000000000000000000000000000000000602082015250565b6000611faf602683611b49565b9150611fba82611f53565b604082019050919050565b60006020820190508181036000830152611fde81611fa2565b9050919050565b7f4f776e61626c653a2063616c6c6572206973206e6f7420746865206f776e6572600082015250565b600061201b602083611b49565b915061202682611fe5565b602082019050919050565b6000602082019050818103600083015261204a8161200e565b9050919050565b600061205c82611865565b915061206783611865565b9250817fffffffffffffffffffffffffffffffffffffffffffffffffffffffffffffffff04831182151516156120a05761209f611cb4565b5b828202905092915050565b7f4e487b7100000000000000000000000000000000000000000000000000000000600052601260045260246000fd5b60006120e582611865565b91506120f083611865565b925082612100576120ff6120ab565b5b82820490509291505056fea2646970667358221220f22e4e4106647fb327185adb3f9b2a7490a66e3275b89c50b1c2954e1398689464736f6c634300080e0033",
  "immutableReferences": {},
  "source": "// SPDX-License-Identifier: MIT\npragma solidity 0.8.14;\n//we use ERC20 instead of IERC20 because we might need to access name or symbol\n//if we end up not using those, it should be change back to IERC20\nimport \"../node_modules/@openzeppelin/contracts/token/ERC20/ERC20.sol\";\nimport \"../node_modules/@openzeppelin/contracts/access/Ownable.sol\";\nimport \"./D4Atoken.sol\";\n\ncontract Market  is Ownable {\n\n    // We need to keep the timestamp of the last transaction(deposit, withdraw or claim) to calculate the reward balance at each of those actions\n    struct  Reserve {\n        ERC20 token;\n        uint rewardPerHourFor1TKN; //we want X tokens per hour for 1 stacked token\n        bool isSupported;\n    }\n\n    struct  Balance {\n        uint amount;\n        uint lastTransactTimeStamp;\n    }\n    \n    mapping(address => Reserve) private reserves;\n    //we make a map for each users addresses we have a map of token addresses to the user balance in that token\n    mapping(address => mapping(address => Balance)) private balances;\n    //the amount of rewards for each users\n    mapping(address => uint) private rewardBalances;\n    //we have to keep the address of token accepted to iterate over the map when we claim\n    //because onlyOwner can add tokens we shouldn't have an array too big\n    address[] public tokens;\n    D4Atoken public rewardToken;\n    \n    event TokenAdded(address asset);\n    event Deposited(uint amount, address asset, address user);\n    event Withdrawn(uint amount, address asset, address user);\n    event RewardUpdated(uint amount, address user);\n    event Claimed(uint amount, address user);\n\n    modifier onlySupportedToken(address _asset) {\n        require(reserves[_asset].isSupported, \"Token not supported\");\n        _;\n    }\n\n    constructor(D4Atoken _rewardToken) {\n        rewardToken = _rewardToken;\n    } \n\n    //Owner can add ERC20 token with their addresses\n    function addToken(address _asset, uint _rewardPerHourFor1TKN) external onlyOwner {\n        require(reserves[_asset].isSupported == false ,\"Token already supported\");\n        reserves[_asset] = Reserve({\n            token: ERC20(_asset), \n            rewardPerHourFor1TKN: _rewardPerHourFor1TKN,\n            isSupported: true\n        });\n        tokens.push(_asset);\n        emit TokenAdded(_asset);\n    }\n\n    //BE CAREFULL of reentrency !\n    function deposit(uint _amount, address _asset) external onlySupportedToken(_asset) {\n        reserves[_asset].token.transferFrom(msg.sender, address(this), _amount);\n        updateRewardBalance(_asset);\n        balances[msg.sender][_asset].amount += _amount;\n        balances[msg.sender][_asset].lastTransactTimeStamp = block.timestamp;\n        emit Deposited(_amount, _asset, msg.sender);\n    }\n\n    function withdraw(uint _amount, address _asset) external onlySupportedToken(_asset) {\n        // require(reserves[asset].balanceOf(address(this)) >= amount, \"Withdrawing too much\"); pretty sure it's useless because the transfert will simply not append\n        require(getBalance(_asset) >= _amount, \"Withdrawing too much\");\n        reserves[_asset].token.transfer(msg.sender, _amount);\n        updateRewardBalance(_asset);\n        balances[msg.sender][_asset].amount -= _amount;\n        if(getBalance(_asset) > 0 ){\n            balances[msg.sender][_asset].lastTransactTimeStamp = block.timestamp;\n        } else {\n            balances[msg.sender][_asset].lastTransactTimeStamp = 0;\n        }\n        emit Withdrawn(_amount,  _asset, msg.sender);\n    }\n\n    function claim() external {\n        address tokenAddr;\n        uint reward;\n        for(uint i = 0; i < tokens.length; ++i){\n            tokenAddr = tokens[i];\n            if(getLastTransact(tokenAddr) > 0 ) {\n                updateRewardBalance(tokenAddr);\n                balances[msg.sender][tokenAddr].lastTransactTimeStamp = block.timestamp;\n            }\n        }\n        require(rewardBalances[msg.sender] > 0, \"No rewards to be minted\");\n        reward = rewardBalances[msg.sender];\n        rewardBalances[msg.sender] = 0;\n        rewardToken.mint(msg.sender, reward);\n        emit Claimed(reward, msg.sender);\n    }\n\n    function updateRewardBalance(address _asset) private onlySupportedToken(_asset) {\n        rewardBalances[msg.sender] += calculateRewardEarned(_asset);\n        emit RewardUpdated(rewardBalances[msg.sender], msg.sender);\n    }\n\n    function calculateRewardEarned(address _asset) private view onlySupportedToken(_asset) returns(uint) {\n        //(amount * rewardPerHourOfAssetForToken) / nbrOfTokenForRewardPerhour\n        uint currentBalance = getBalance(_asset);\n        uint lastTransact = getLastTransact(_asset);\n        uint rewardPerHourFor1TKN = reserves[_asset].rewardPerHourFor1TKN;\n        if(lastTransact > 0) {\n            //We have to calculate the number of rewards by hour for the current balance\n            uint rewardCurrentBalance = (currentBalance * rewardPerHourFor1TKN)/(1 ether);\n            //We can now calculate the rewards gained\n            return ((block.timestamp - lastTransact) * rewardCurrentBalance) / 3600;\n        } else {\n            return 0;\n        }\n    }\n\n    //This function allow to check the global rewards for any account without modifying state variables\n    function calculateTotalRewardEarned() public view returns(uint) {\n        address tokenAddr;\n        uint totalRewards = rewardBalances[msg.sender];\n        for(uint i = 0; i < tokens.length; ++i){\n            tokenAddr = tokens[i];\n            if( getLastTransact(tokenAddr) > 0 ) {\n                totalRewards += calculateRewardEarned(tokenAddr);\n            }\n        }\n        return totalRewards;\n    }\n\n\n    function getBalance(address _asset) public view onlySupportedToken(_asset) returns(uint) {\n        return balances[msg.sender][_asset].amount;\n    }\n\n    // This should hep fot test to get the exact reward between two times\n    function getLastTransact(address _asset) public view onlySupportedToken(_asset) returns(uint) {\n        return balances[msg.sender][_asset].lastTransactTimeStamp;\n    }\n\n    //used for tests\n    function getReserve(address _asset) public view onlySupportedToken(_asset) returns(Reserve memory) {\n        return reserves[_asset];\n    }\n\n    //used for tests\n    function getRewardBalance() public view returns(uint) {\n        return rewardBalances[msg.sender];\n    }\n}\n",
  "sourcePath": "/mnt/d/ALYRA/Projet #4/brouillon/truffle/contracts/Market.sol",
  "compiler": {
    "name": "solc",
    "version": "0.8.14+commit.80d49f37.Emscripten.clang"
  },
  "schemaVersion": "3.4.7",
  "updatedAt": "2022-08-03T12:58:39.519Z",
  "networkType": "ethereum",
  "devdoc": {
    "kind": "dev",
    "methods": {
      "owner()": {
        "details": "Returns the address of the current owner."
      },
      "renounceOwnership()": {
        "details": "Leaves the contract without owner. It will not be possible to call `onlyOwner` functions anymore. Can only be called by the current owner. NOTE: Renouncing ownership will leave the contract without an owner, thereby removing any functionality that is only available to the owner."
      },
      "transferOwnership(address)": {
        "details": "Transfers ownership of the contract to a new account (`newOwner`). Can only be called by the current owner."
      }
    },
    "version": 1
  },
  "userdoc": {
    "kind": "user",
    "methods": {},
    "version": 1
  }
}